{
  "address": "0x9b50AB91b3ffBcdd5d5Ed49eD70bf299434C955C",
  "abi": [
    {
      "anonymous": false,
      "inputs": [
        {
          "indexed": false,
          "internalType": "address",
          "name": "acceptedBy",
          "type": "address"
        },
        {
          "indexed": false,
          "internalType": "uint256",
          "name": "id",
          "type": "uint256"
        }
      ],
      "name": "BidAccepted",
      "type": "event"
    },
    {
      "anonymous": false,
      "inputs": [
        {
          "indexed": false,
          "internalType": "uint256",
          "name": "id",
          "type": "uint256"
        }
      ],
      "name": "BidCanceled",
      "type": "event"
    },
    {
      "anonymous": false,
      "inputs": [
        {
          "indexed": false,
          "internalType": "uint256",
          "name": "newAmount",
          "type": "uint256"
        },
        {
          "indexed": false,
          "internalType": "uint256",
          "name": "id",
          "type": "uint256"
        }
      ],
      "name": "BidIncreased",
      "type": "event"
    },
    {
      "anonymous": false,
      "inputs": [
        {
          "indexed": false,
          "internalType": "uint256",
          "name": "newAmount",
          "type": "uint256"
        },
        {
          "indexed": false,
          "internalType": "uint256",
          "name": "id",
          "type": "uint256"
        }
      ],
      "name": "BidWithdrawn",
      "type": "event"
    },
    {
      "anonymous": false,
      "inputs": [
        {
          "indexed": false,
          "internalType": "uint256",
          "name": "amount",
          "type": "uint256"
        },
        {
          "indexed": false,
          "internalType": "address",
          "name": "submitter",
          "type": "address"
        },
        {
          "indexed": false,
          "internalType": "uint256",
          "name": "id",
          "type": "uint256"
        },
        {
          "indexed": false,
          "internalType": "bytes32",
          "name": "details",
          "type": "bytes32"
        }
      ],
      "name": "NewBid",
      "type": "event"
    },
    {
      "inputs": [
        {
          "internalType": "uint256",
          "name": "_id",
          "type": "uint256"
        }
      ],
      "name": "acceptBid",
      "outputs": [],
      "stateMutability": "nonpayable",
      "type": "function"
    },
    {
      "inputs": [
        {
          "internalType": "uint256",
          "name": "",
          "type": "uint256"
        }
      ],
      "name": "bids",
      "outputs": [
        {
          "internalType": "uint256",
          "name": "amount",
          "type": "uint256"
        },
        {
          "internalType": "address",
          "name": "submitter",
          "type": "address"
        },
        {
          "internalType": "uint256",
          "name": "createdAt",
          "type": "uint256"
        },
        {
          "internalType": "enum GuildAuctionQueue.BidStatus",
          "name": "status",
          "type": "uint8"
        }
      ],
      "stateMutability": "view",
      "type": "function"
    },
    {
      "inputs": [
        {
          "internalType": "uint256",
          "name": "_id",
          "type": "uint256"
        }
      ],
      "name": "cancelBid",
      "outputs": [],
      "stateMutability": "nonpayable",
      "type": "function"
    },
    {
      "inputs": [],
      "name": "destination",
      "outputs": [
        {
          "internalType": "address",
          "name": "",
          "type": "address"
        }
      ],
      "stateMutability": "view",
      "type": "function"
    },
    {
      "inputs": [
        {
          "internalType": "uint256",
          "name": "_amount",
          "type": "uint256"
        },
        {
          "internalType": "uint256",
          "name": "_id",
          "type": "uint256"
        }
      ],
      "name": "increaseBid",
      "outputs": [],
      "stateMutability": "nonpayable",
      "type": "function"
    },
    {
      "inputs": [
        {
          "internalType": "address",
          "name": "_owner",
          "type": "address"
        },
        {
          "internalType": "address",
          "name": "_token",
          "type": "address"
        },
        {
          "internalType": "address",
          "name": "_destination",
          "type": "address"
        },
        {
          "internalType": "uint256",
          "name": "_lockupPeriod",
          "type": "uint256"
        },
        {
          "internalType": "uint256",
          "name": "_minBid",
          "type": "uint256"
        },
        {
          "internalType": "uint256",
          "name": "_minShares",
          "type": "uint256"
        }
      ],
      "name": "init",
      "outputs": [],
      "stateMutability": "nonpayable",
      "type": "function"
    },
    {
      "inputs": [
        {
          "internalType": "address",
          "name": "user",
          "type": "address"
        }
      ],
      "name": "isMember",
      "outputs": [
        {
          "internalType": "bool",
          "name": "",
          "type": "bool"
        }
      ],
      "stateMutability": "view",
      "type": "function"
    },
    {
      "inputs": [],
      "name": "lockupPeriod",
      "outputs": [
        {
          "internalType": "uint256",
          "name": "",
          "type": "uint256"
        }
      ],
      "stateMutability": "view",
      "type": "function"
    },
    {
      "inputs": [],
      "name": "membersCanAccept",
      "outputs": [
        {
          "internalType": "uint256",
          "name": "",
          "type": "uint256"
        }
      ],
      "stateMutability": "view",
      "type": "function"
    },
    {
      "inputs": [],
      "name": "minBid",
      "outputs": [
        {
          "internalType": "uint256",
          "name": "",
          "type": "uint256"
        }
      ],
      "stateMutability": "view",
      "type": "function"
    },
    {
      "inputs": [],
      "name": "minShares",
      "outputs": [
        {
          "internalType": "uint256",
          "name": "",
          "type": "uint256"
        }
      ],
      "stateMutability": "view",
      "type": "function"
    },
    {
      "inputs": [],
      "name": "newBidId",
      "outputs": [
        {
          "internalType": "uint256",
          "name": "",
          "type": "uint256"
        }
      ],
      "stateMutability": "view",
      "type": "function"
    },
    {
      "inputs": [],
      "name": "owner",
      "outputs": [
        {
          "internalType": "address",
          "name": "",
          "type": "address"
        }
      ],
      "stateMutability": "view",
      "type": "function"
    },
    {
      "inputs": [
        {
          "internalType": "uint256",
          "name": "_amount",
          "type": "uint256"
        },
        {
          "internalType": "bytes32",
          "name": "_details",
          "type": "bytes32"
        }
      ],
      "name": "submitBid",
      "outputs": [],
      "stateMutability": "nonpayable",
      "type": "function"
    },
    {
      "inputs": [],
      "name": "token",
      "outputs": [
        {
          "internalType": "contract IERC20",
          "name": "",
          "type": "address"
        }
      ],
      "stateMutability": "view",
      "type": "function"
    },
    {
      "inputs": [
        {
          "internalType": "uint256",
          "name": "_amount",
          "type": "uint256"
        },
        {
          "internalType": "uint32",
          "name": "_id",
          "type": "uint32"
        }
      ],
      "name": "withdrawBid",
      "outputs": [],
      "stateMutability": "nonpayable",
      "type": "function"
    }
  ],
  "transactionHash": "0xaeaddafd20c639cb310bb44e64efba43152a3bd167f506bda28a2071f64378f4",
  "args": [],
  "solcInputHash": "c12555f975b5969136770e6f4db12879",
  "bytecode": "0x608060405234801561001057600080fd5b5060016000556113fb806100256000396000f3fe608060405234801561001057600080fd5b50600436106101005760003560e01c80638da5cb5b11610097578063ce37387011610066578063ce373870146101e9578063ee947a7c146101fc578063f344be4614610204578063fc0c546a1461021757610100565b80638da5cb5b146101995780639703ef35146101ae578063a230c524146101c1578063b269681d146101e157610100565b80633c3b1795116100d35780633c3b17951461015e5780633e109a19146101665780634423c5f11461016e5780637ef7e2e61461019157610100565b806319fcfab1146101055780631dd92a661461011a5780632a993e621461012d5780632b1fd58a1461014b575b600080fd5b610118610113366004610fb9565b61021f565b005b610118610128366004610fb9565b6103b3565b610135610552565b60405161014291906112b4565b60405180910390f35b610118610159366004610fa1565b610558565b61013561073d565b610135610743565b61018161017c366004610fa1565b610749565b60405161014294939291906112e1565b61013561077d565b6101a1610783565b6040516101429190611011565b6101186101bc366004610fa1565b610792565b6101d46101cf366004610e8a565b61095d565b6040516101429190611062565b6101a1610afb565b6101186101f7366004610ec9565b610b0a565b610135610c3c565b610118610212366004610fda565b610c42565b6101a1610e65565b6002600054141561024b5760405162461bcd60e51b81526004016102429061125d565b60405180910390fd5b60026000556005548210156102725760405162461bcd60e51b815260040161024290611092565b6001546040516323b872dd60e01b8152620100009091046001600160a01b0316906323b872dd906102ab90339030908790600401611025565b602060405180830381600087803b1580156102c557600080fd5b505af11580156102d9573d6000803e3d6000fd5b505050506040513d601f19601f820116820180604052508101906102fd9190610f87565b6103195760405162461bcd60e51b81526004016102429061110c565b6008805460009081526009602052604081208481556001810180546001600160a01b0319163317905560038101805460ff191690554260028201558254909290918291906103668361137c565b91905055507fe6dcca7407be6b00aeaa48976c2ae152e8d7cc8a16074825c3546be778eda6fa843383866040516103a094939291906112bd565b60405180910390a1505060016000555050565b600260005414156103d65760405162461bcd60e51b81526004016102429061125d565b600260005560085481106103fc5760405162461bcd60e51b81526004016102429061106d565b600081815260096020526040812090600382015460ff16600281111561043257634e487b7160e01b600052602160045260246000fd5b1461044f5760405162461bcd60e51b8152600401610242906110e6565b6001546040516323b872dd60e01b8152620100009091046001600160a01b0316906323b872dd9061048890339030908890600401611025565b602060405180830381600087803b1580156104a257600080fd5b505af11580156104b6573d6000803e3d6000fd5b505050506040513d601f19601f820116820180604052508101906104da9190610f87565b6104f65760405162461bcd60e51b81526004016102429061110c565b8281600001600082825461050a919061134d565b909155505080546040517eaf2e2a3e39505661009eb9f5ad582e286bfa100a4a613d3889d645468942349161054091859061132b565b60405180910390a15050600160005550565b60065481565b6006546001141561058d5761056c3361095d565b6105885760405162461bcd60e51b815260040161024290611230565b6105b7565b6002546001600160a01b031633146105b75760405162461bcd60e51b815260040161024290611294565b600260005414156105da5760405162461bcd60e51b81526004016102429061125d565b600260005560085481106106005760405162461bcd60e51b81526004016102429061106d565b600081815260096020526040812090600382015460ff16600281111561063657634e487b7160e01b600052602160045260246000fd5b146106535760405162461bcd60e51b8152600401610242906110e6565b60038181018054600160ff199091168117909155549054825460405163a9059cbb60e01b81526001600160a01b036201000090940484169363a9059cbb936106a093911691600401611049565b602060405180830381600087803b1580156106ba57600080fd5b505af11580156106ce573d6000803e3d6000fd5b505050506040513d601f19601f820116820180604052508101906106f29190610f87565b6106fb57600080fd5b7f68113ca7b748f7d17637d79856900bc9336b88166e726bc9b55c62a39408b407338360405161072c929190611049565b60405180910390a150506001600055565b60075481565b60055481565b600960205260009081526040902080546001820154600283015460039093015491926001600160a01b039091169160ff1684565b60085481565b6002546001600160a01b031681565b600260005414156107b55760405162461bcd60e51b81526004016102429061125d565b600260005560085481106107db5760405162461bcd60e51b81526004016102429061106d565b600081815260096020526040812090600382015460ff16600281111561081157634e487b7160e01b600052602160045260246000fd5b1461082e5760405162461bcd60e51b8152600401610242906110e6565b60018101546001600160a01b0316331461085a5760405162461bcd60e51b81526004016102429061120c565b42600454826002015461086d919061134d565b1061088a5760405162461bcd60e51b8152600401610242906110b7565b600381018054600260ff19909116179055600154815460405163a9059cbb60e01b8152620100009092046001600160a01b03169163a9059cbb916108d391339190600401611049565b602060405180830381600087803b1580156108ed57600080fd5b505af1158015610901573d6000803e3d6000fd5b505050506040513d601f19601f820116820180604052508101906109259190610f87565b61092e57600080fd5b7ff72c9cb76aa633bc9310fa98738d474339fdf2f23dfac70ccbd65e593f6654df8260405161072c91906112b4565b6002546040805163623d9ac960e01b815290516000926001600160a01b0316918391839163623d9ac9916004808301926020929190829003018186803b1580156109a657600080fd5b505afa1580156109ba573d6000803e3d6000fd5b505050506040513d601f19601f820116820180604052508101906109de9190610ead565b60405163100b05e560e21b815290915081906000906001600160a01b0383169063402c179490610a12908990600401611011565b60206040518083038186803b158015610a2a57600080fd5b505afa158015610a3e573d6000803e3d6000fd5b505050506040513d601f19601f82011682018060405250810190610a629190610ead565b90506000826001600160a01b03166308ae4b0c836040518263ffffffff1660e01b8152600401610a929190611011565b60c06040518083038186803b158015610aaa57600080fd5b505afa158015610abe573d6000803e3d6000fd5b505050506040513d601f19601f82011682018060405250810190610ae29190610f2d565b505060075490921015985050505050505050505b919050565b6003546001600160a01b031681565b600154610100900460ff1680610b23575060015460ff16155b610b3f5760405162461bcd60e51b81526004016102429061116a565b600154610100900460ff16158015610b69576001805460ff1961ff00199091166101001716811790555b6001600160a01b038616610b8f5760405162461bcd60e51b8152600401610242906111e5565b6001600160a01b038516610bb55760405162461bcd60e51b8152600401610242906111b8565b8115610bc657600782905560016006555b600180546001600160a01b03808916620100000262010000600160b01b031990921691909117909155600380548783166001600160a01b0319918216179091556004869055600585905560028054928a16929091169190911790558015610c33576001805461ff00191690555b50505050505050565b60045481565b60026000541415610c655760405162461bcd60e51b81526004016102429061125d565b600260005560085463ffffffff821610610c915760405162461bcd60e51b81526004016102429061106d565b63ffffffff8116600090815260096020526040812090600382015460ff166002811115610cce57634e487b7160e01b600052602160045260246000fd5b14610ceb5760405162461bcd60e51b8152600401610242906110e6565b60018101546001600160a01b03163314610d175760405162461bcd60e51b81526004016102429061120c565b6005548154610d27908590611365565b1015610d455760405162461bcd60e51b81526004016102429061113b565b426004548260020154610d58919061134d565b10610d755760405162461bcd60e51b8152600401610242906110b7565b82816000016000828254610d899190611365565b909155505060015460405163a9059cbb60e01b8152620100009091046001600160a01b03169063a9059cbb90610dc59033908790600401611049565b602060405180830381600087803b158015610ddf57600080fd5b505af1158015610df3573d6000803e3d6000fd5b505050506040513d601f19601f82011682018060405250810190610e179190610f87565b610e335760405162461bcd60e51b81526004016102429061110c565b80546040517f6415d97b7a9df23899954c482911f3fc2cb8afff4b6b15e788859e1307de227a91610540918590611339565b6001546201000090046001600160a01b031681565b80518015158114610af657600080fd5b600060208284031215610e9b578081fd5b8135610ea6816113ad565b9392505050565b600060208284031215610ebe578081fd5b8151610ea6816113ad565b60008060008060008060c08789031215610ee1578182fd5b8635610eec816113ad565b95506020870135610efc816113ad565b94506040870135610f0c816113ad565b959894975094956060810135955060808101359460a0909101359350915050565b60008060008060008060c08789031215610f45578182fd5b8651610f50816113ad565b6020880151604089015191975095509350610f6d60608801610e7a565b92506080870151915060a087015190509295509295509295565b600060208284031215610f98578081fd5b610ea682610e7a565b600060208284031215610fb2578081fd5b5035919050565b60008060408385031215610fcb578182fd5b50508035926020909101359150565b60008060408385031215610fec578182fd5b82359150602083013563ffffffff81168114611006578182fd5b809150509250929050565b6001600160a01b0391909116815260200190565b6001600160a01b039384168152919092166020820152604081019190915260600190565b6001600160a01b03929092168252602082015260400190565b901515815260200190565b6020808252600b908201526a1a5b9d985b1a5908189a5960aa1b604082015260600190565b6020808252600b908201526a62696420746f6f206c6f7760a81b604082015260600190565b6020808252601590820152743637b1b5bab82832b934b7b2103737ba1037bb32b960591b604082015260600190565b6020808252600c908201526b62696420696e61637469766560a01b604082015260600190565b6020808252601590820152741d1bdad95b881d1c985b9cd9995c8819985a5b1959605a1b604082015260600190565b60208082526015908201527472656d61696e696e672062696420746f6f206c6f7760581b604082015260600190565b6020808252602e908201527f496e697469616c697a61626c653a20636f6e747261637420697320616c72656160408201526d191e481a5b9a5d1a585b1a5e995960921b606082015260800190565b60208082526013908201527234b73b30b634b2103232b9ba34b730ba34b7b760691b604082015260600190565b6020808252600d908201526c34b73b30b634b2103a37b5b2b760991b604082015260600190565b6020808252600a908201526910b9bab136b4ba3a32b960b11b604082015260600190565b60208082526013908201527210b33ab6361036b7b637b1b41036b2b6b132b960691b604082015260600190565b6020808252601f908201527f5265656e7472616e637947756172643a207265656e7472616e742063616c6c00604082015260600190565b60208082526006908201526510b7bbb732b960d11b604082015260600190565b90815260200190565b9384526001600160a01b039290921660208401526040830152606082015260800190565b8481526001600160a01b038416602082015260408101839052608081016003831061131c57634e487b7160e01b600052602160045260246000fd5b82606083015295945050505050565b918252602082015260400190565b91825263ffffffff16602082015260400190565b6000821982111561136057611360611397565b500190565b60008282101561137757611377611397565b500390565b600060001982141561139057611390611397565b5060010190565b634e487b7160e01b600052601160045260246000fd5b6001600160a01b03811681146113c257600080fd5b5056fea2646970667358221220792e886fb09c80b0a347c0f3f4c73db7a048152f5c56f57adadcd0a1857bd91b64736f6c63430008000033",
  "devdoc": {
    "kind": "dev",
    "methods": {},
    "version": 1
  },
  "userdoc": {
    "kind": "user",
    "methods": {},
    "version": 1
  },
  "storageLayout": {
    "storage": [
      {
        "astId": 56,
        "contract": "contracts/GuildAuctionQueue.sol:GuildAuctionQueue",
        "label": "_status",
        "offset": 0,
        "slot": "0",
        "type": "t_uint256"
      },
      {
        "astId": 5,
        "contract": "contracts/GuildAuctionQueue.sol:GuildAuctionQueue",
        "label": "_initialized",
        "offset": 0,
        "slot": "1",
        "type": "t_bool"
      },
      {
        "astId": 8,
        "contract": "contracts/GuildAuctionQueue.sol:GuildAuctionQueue",
        "label": "_initializing",
        "offset": 1,
        "slot": "1",
        "type": "t_bool"
      },
      {
        "astId": 732,
        "contract": "contracts/GuildAuctionQueue.sol:GuildAuctionQueue",
        "label": "token",
        "offset": 2,
        "slot": "1",
        "type": "t_contract(IERC20)670"
      },
      {
        "astId": 734,
        "contract": "contracts/GuildAuctionQueue.sol:GuildAuctionQueue",
        "label": "owner",
        "offset": 0,
        "slot": "2",
        "type": "t_address"
      },
      {
        "astId": 736,
        "contract": "contracts/GuildAuctionQueue.sol:GuildAuctionQueue",
        "label": "destination",
        "offset": 0,
        "slot": "3",
        "type": "t_address"
      },
      {
        "astId": 738,
        "contract": "contracts/GuildAuctionQueue.sol:GuildAuctionQueue",
        "label": "lockupPeriod",
        "offset": 0,
        "slot": "4",
        "type": "t_uint256"
      },
      {
        "astId": 740,
        "contract": "contracts/GuildAuctionQueue.sol:GuildAuctionQueue",
        "label": "minBid",
        "offset": 0,
        "slot": "5",
        "type": "t_uint256"
      },
      {
        "astId": 742,
        "contract": "contracts/GuildAuctionQueue.sol:GuildAuctionQueue",
        "label": "membersCanAccept",
        "offset": 0,
        "slot": "6",
        "type": "t_uint256"
      },
      {
        "astId": 744,
        "contract": "contracts/GuildAuctionQueue.sol:GuildAuctionQueue",
        "label": "minShares",
        "offset": 0,
        "slot": "7",
        "type": "t_uint256"
      },
      {
        "astId": 746,
        "contract": "contracts/GuildAuctionQueue.sol:GuildAuctionQueue",
        "label": "newBidId",
        "offset": 0,
        "slot": "8",
        "type": "t_uint256"
      },
      {
        "astId": 751,
        "contract": "contracts/GuildAuctionQueue.sol:GuildAuctionQueue",
        "label": "bids",
        "offset": 0,
        "slot": "9",
        "type": "t_mapping(t_uint256,t_struct(Bid)765_storage)"
      }
    ],
    "types": {
      "t_address": {
        "encoding": "inplace",
        "label": "address",
        "numberOfBytes": "20"
      },
      "t_bool": {
        "encoding": "inplace",
        "label": "bool",
        "numberOfBytes": "1"
      },
      "t_contract(IERC20)670": {
        "encoding": "inplace",
        "label": "contract IERC20",
        "numberOfBytes": "20"
      },
      "t_enum(BidStatus)755": {
        "encoding": "inplace",
        "label": "enum GuildAuctionQueue.BidStatus",
        "numberOfBytes": "1"
      },
      "t_mapping(t_uint256,t_struct(Bid)765_storage)": {
        "encoding": "mapping",
        "key": "t_uint256",
        "label": "mapping(uint256 => struct GuildAuctionQueue.Bid)",
        "numberOfBytes": "32",
        "value": "t_struct(Bid)765_storage"
      },
      "t_struct(Bid)765_storage": {
        "encoding": "inplace",
        "label": "struct GuildAuctionQueue.Bid",
        "members": [
          {
            "astId": 757,
            "contract": "contracts/GuildAuctionQueue.sol:GuildAuctionQueue",
            "label": "amount",
            "offset": 0,
            "slot": "0",
            "type": "t_uint256"
          },
          {
            "astId": 759,
            "contract": "contracts/GuildAuctionQueue.sol:GuildAuctionQueue",
            "label": "submitter",
            "offset": 0,
            "slot": "1",
            "type": "t_address"
          },
          {
            "astId": 761,
            "contract": "contracts/GuildAuctionQueue.sol:GuildAuctionQueue",
            "label": "createdAt",
            "offset": 0,
            "slot": "2",
            "type": "t_uint256"
          },
          {
            "astId": 764,
            "contract": "contracts/GuildAuctionQueue.sol:GuildAuctionQueue",
            "label": "status",
            "offset": 0,
            "slot": "3",
            "type": "t_enum(BidStatus)755"
          }
        ],
        "numberOfBytes": "128"
      },
      "t_uint256": {
        "encoding": "inplace",
        "label": "uint256",
        "numberOfBytes": "32"
      }
    }
  }
}