{
  "address": "0x1B4118Da6aD04370B8241a0DF3356844C6f27a1B",
  "abi": [
    {
      "inputs": [
        {
          "internalType": "address",
          "name": "_implementation",
          "type": "address"
        }
      ],
      "stateMutability": "nonpayable",
      "type": "constructor"
    },
    {
      "anonymous": false,
      "inputs": [
        {
          "indexed": false,
          "internalType": "address",
          "name": "queueAddress",
          "type": "address"
        },
        {
          "indexed": false,
          "internalType": "address",
          "name": "token",
          "type": "address"
        },
        {
          "indexed": false,
          "internalType": "address",
          "name": "moloch",
          "type": "address"
        },
        {
          "indexed": false,
          "internalType": "address",
          "name": "destination",
          "type": "address"
        }
      ],
      "name": "NewQueue",
      "type": "event"
    },
    {
      "inputs": [
        {
          "internalType": "address",
          "name": "_token",
          "type": "address"
        },
        {
          "internalType": "address",
          "name": "_moloch",
          "type": "address"
        },
        {
          "internalType": "address",
          "name": "_destination",
          "type": "address"
        },
        {
          "internalType": "uint256",
          "name": "_lockupPeriod",
          "type": "uint256"
        }
      ],
      "name": "create",
      "outputs": [
        {
          "internalType": "address",
          "name": "",
          "type": "address"
        }
      ],
      "stateMutability": "nonpayable",
      "type": "function"
    },
    {
      "inputs": [
        {
          "internalType": "address",
          "name": "_token",
          "type": "address"
        },
        {
          "internalType": "address",
          "name": "_moloch",
          "type": "address"
        },
        {
          "internalType": "address",
          "name": "_destination",
          "type": "address"
        },
        {
          "internalType": "uint256",
          "name": "_lockupPeriod",
          "type": "uint256"
        },
        {
          "internalType": "bytes32",
          "name": "_salt",
          "type": "bytes32"
        }
      ],
      "name": "createDeterministic",
      "outputs": [
        {
          "internalType": "address",
          "name": "",
          "type": "address"
        }
      ],
      "stateMutability": "nonpayable",
      "type": "function"
    },
    {
      "inputs": [],
      "name": "implementation",
      "outputs": [
        {
          "internalType": "address",
          "name": "",
          "type": "address"
        }
      ],
      "stateMutability": "view",
      "type": "function"
    },
    {
      "inputs": [
        {
          "internalType": "bytes32",
          "name": "_salt",
          "type": "bytes32"
        }
      ],
      "name": "predictDeterministicAddress",
      "outputs": [
        {
          "internalType": "address",
          "name": "",
          "type": "address"
        }
      ],
      "stateMutability": "view",
      "type": "function"
    }
  ],
  "transactionHash": "0xbe6ecf32e3ee0ac25ca830fd834992eb472e6cbed02fbc81a150ea969c0146b2",
  "args": [
    "0x95647F88dcbC12986046fc4f49064Edd11a25d38"
  ],
  "solcInputHash": "11c7d8945c396bcf0d37a4e5f797532e",
  "bytecode": "0x60a060405234801561001057600080fd5b5060405161066e38038061066e83398101604081905261002f91610073565b6001600160a01b03811661005e5760405162461bcd60e51b8152600401610055906100a1565b60405180910390fd5b60601b6001600160601b0319166080526100d8565b600060208284031215610084578081fd5b81516001600160a01b038116811461009a578182fd5b9392505050565b60208082526016908201527f696e76616c696420696d706c656d656e746174696f6e00000000000000000000604082015260600190565b60805160601c6105656101096000396000818160b00152818160f501528181610124015261014e01526105656000f3fe608060405234801561001057600080fd5b506004361061004c5760003560e01c80630f057334146100515780635414dff01461007a5780635c60da1b1461008d5780635e90eb3614610095575b600080fd5b61006461005f3660046103f3565b6100a8565b604051610071919061045f565b60405180910390f35b610064610088366004610447565b6100ee565b610064610122565b6100646100a33660046103a9565b610146565b6000806100d57f00000000000000000000000000000000000000000000000000000000000000008461018a565b90506100e48188888888610209565b9695505050505050565b600061011a7f0000000000000000000000000000000000000000000000000000000000000000836102b1565b90505b919050565b7f000000000000000000000000000000000000000000000000000000000000000081565b6000806101727f00000000000000000000000000000000000000000000000000000000000000006102c5565b90506101818187878787610209565b95945050505050565b6000604051733d602d80600a3d3981f3363d3d373d3d3d363d7360601b81528360601b60148201526e5af43d82803e903d91602b57fd5bf360881b6028820152826037826000f59150506001600160a01b0381166102035760405162461bcd60e51b81526004016101fa906104c8565b60405180910390fd5b92915050565b604051632331cedd60e11b81526001600160a01b038616906346639dba9061023b90879087908790879060040161049e565b600060405180830381600087803b15801561025557600080fd5b505af1158015610269573d6000803e3d6000fd5b505050507f0efa7fa2fd1b4c468dff6dbfc032ec4845fc1f0e6b633d23767aa1450580e501858585856040516102a29493929190610473565b60405180910390a15050505050565b60006102be838330610334565b9392505050565b6000604051733d602d80600a3d3981f3363d3d373d3d3d363d7360601b81528260601b60148201526e5af43d82803e903d91602b57fd5bf360881b60288201526037816000f09150506001600160a01b03811661011d5760405162461bcd60e51b81526004016101fa906104ff565b604051733d602d80600a3d3981f3363d3d373d3d3d363d7360601b8152606093841b60148201526f5af43d82803e903d91602b57fd5bf3ff60801b6028820152921b6038830152604c8201526037808220606c830152605591012090565b80356001600160a01b038116811461011d57600080fd5b600080600080608085870312156103be578384fd5b6103c785610392565b93506103d560208601610392565b92506103e360408601610392565b9396929550929360600135925050565b600080600080600060a0868803121561040a578081fd5b61041386610392565b945061042160208701610392565b935061042f60408701610392565b94979396509394606081013594506080013592915050565b600060208284031215610458578081fd5b5035919050565b6001600160a01b0391909116815260200190565b6001600160a01b03948516815292841660208401529083166040830152909116606082015260800190565b6001600160a01b039485168152928416602084015292166040820152606081019190915260800190565b60208082526017908201527f455243313136373a2063726561746532206661696c6564000000000000000000604082015260600190565b602080825260169082015275115490cc4c4d8dce8818dc99585d194819985a5b195960521b60408201526060019056fea26469706673582212208fb0261c56482a9d8761bdf7dd5a8e6ed2e5a8cde26d79f9a6ef7908f2dab0e764736f6c63430008000033",
  "devdoc": {
    "kind": "dev",
    "methods": {},
    "version": 1
  },
  "userdoc": {
    "kind": "user",
    "methods": {},
    "version": 1
  },
  "storageLayout": {
    "storage": [],
    "types": null
  }
}