{
  "address": "0x95647F88dcbC12986046fc4f49064Edd11a25d38",
  "abi": [
    {
      "anonymous": false,
      "inputs": [
        {
          "indexed": false,
          "internalType": "address",
          "name": "acceptedBy",
          "type": "address"
        },
        {
          "indexed": false,
          "internalType": "uint256",
          "name": "id",
          "type": "uint256"
        }
      ],
      "name": "BidAccepted",
      "type": "event"
    },
    {
      "anonymous": false,
      "inputs": [
        {
          "indexed": false,
          "internalType": "uint256",
          "name": "id",
          "type": "uint256"
        }
      ],
      "name": "BidCanceled",
      "type": "event"
    },
    {
      "anonymous": false,
      "inputs": [
        {
          "indexed": false,
          "internalType": "uint256",
          "name": "newAmount",
          "type": "uint256"
        },
        {
          "indexed": false,
          "internalType": "uint256",
          "name": "id",
          "type": "uint256"
        }
      ],
      "name": "BidIncreased",
      "type": "event"
    },
    {
      "anonymous": false,
      "inputs": [
        {
          "indexed": false,
          "internalType": "uint256",
          "name": "newAmount",
          "type": "uint256"
        },
        {
          "indexed": false,
          "internalType": "uint256",
          "name": "id",
          "type": "uint256"
        }
      ],
      "name": "BidWithdrawn",
      "type": "event"
    },
    {
      "anonymous": false,
      "inputs": [
        {
          "indexed": false,
          "internalType": "uint256",
          "name": "amount",
          "type": "uint256"
        },
        {
          "indexed": false,
          "internalType": "address",
          "name": "submitter",
          "type": "address"
        },
        {
          "indexed": false,
          "internalType": "uint256",
          "name": "id",
          "type": "uint256"
        },
        {
          "indexed": false,
          "internalType": "bytes32",
          "name": "details",
          "type": "bytes32"
        }
      ],
      "name": "NewBid",
      "type": "event"
    },
    {
      "inputs": [
        {
          "internalType": "uint256",
          "name": "_id",
          "type": "uint256"
        }
      ],
      "name": "acceptBid",
      "outputs": [],
      "stateMutability": "nonpayable",
      "type": "function"
    },
    {
      "inputs": [
        {
          "internalType": "uint256",
          "name": "",
          "type": "uint256"
        }
      ],
      "name": "bids",
      "outputs": [
        {
          "internalType": "uint256",
          "name": "amount",
          "type": "uint256"
        },
        {
          "internalType": "address",
          "name": "submitter",
          "type": "address"
        },
        {
          "internalType": "uint256",
          "name": "createdAt",
          "type": "uint256"
        },
        {
          "internalType": "bytes32",
          "name": "details",
          "type": "bytes32"
        },
        {
          "internalType": "enum GuildAuctionQueue.BidStatus",
          "name": "status",
          "type": "uint8"
        }
      ],
      "stateMutability": "view",
      "type": "function"
    },
    {
      "inputs": [
        {
          "internalType": "uint256",
          "name": "_id",
          "type": "uint256"
        }
      ],
      "name": "cancelBid",
      "outputs": [],
      "stateMutability": "nonpayable",
      "type": "function"
    },
    {
      "inputs": [],
      "name": "destination",
      "outputs": [
        {
          "internalType": "address",
          "name": "",
          "type": "address"
        }
      ],
      "stateMutability": "view",
      "type": "function"
    },
    {
      "inputs": [
        {
          "internalType": "uint256",
          "name": "_amount",
          "type": "uint256"
        },
        {
          "internalType": "uint256",
          "name": "_id",
          "type": "uint256"
        }
      ],
      "name": "increaseBid",
      "outputs": [],
      "stateMutability": "nonpayable",
      "type": "function"
    },
    {
      "inputs": [
        {
          "internalType": "address",
          "name": "_token",
          "type": "address"
        },
        {
          "internalType": "address",
          "name": "_moloch",
          "type": "address"
        },
        {
          "internalType": "address",
          "name": "_destination",
          "type": "address"
        },
        {
          "internalType": "uint256",
          "name": "_lockupPeriod",
          "type": "uint256"
        }
      ],
      "name": "init",
      "outputs": [],
      "stateMutability": "nonpayable",
      "type": "function"
    },
    {
      "inputs": [
        {
          "internalType": "address",
          "name": "user",
          "type": "address"
        }
      ],
      "name": "isMember",
      "outputs": [
        {
          "internalType": "bool",
          "name": "",
          "type": "bool"
        }
      ],
      "stateMutability": "view",
      "type": "function"
    },
    {
      "inputs": [],
      "name": "lockupPeriod",
      "outputs": [
        {
          "internalType": "uint256",
          "name": "",
          "type": "uint256"
        }
      ],
      "stateMutability": "view",
      "type": "function"
    },
    {
      "inputs": [],
      "name": "moloch",
      "outputs": [
        {
          "internalType": "contract IMOLOCH",
          "name": "",
          "type": "address"
        }
      ],
      "stateMutability": "view",
      "type": "function"
    },
    {
      "inputs": [],
      "name": "newBidId",
      "outputs": [
        {
          "internalType": "uint256",
          "name": "",
          "type": "uint256"
        }
      ],
      "stateMutability": "view",
      "type": "function"
    },
    {
      "inputs": [
        {
          "internalType": "uint256",
          "name": "_amount",
          "type": "uint256"
        },
        {
          "internalType": "bytes32",
          "name": "_details",
          "type": "bytes32"
        }
      ],
      "name": "submitBid",
      "outputs": [],
      "stateMutability": "nonpayable",
      "type": "function"
    },
    {
      "inputs": [],
      "name": "token",
      "outputs": [
        {
          "internalType": "contract IERC20",
          "name": "",
          "type": "address"
        }
      ],
      "stateMutability": "view",
      "type": "function"
    },
    {
      "inputs": [
        {
          "internalType": "uint256",
          "name": "_amount",
          "type": "uint256"
        },
        {
          "internalType": "uint32",
          "name": "_id",
          "type": "uint32"
        }
      ],
      "name": "withdrawBid",
      "outputs": [],
      "stateMutability": "nonpayable",
      "type": "function"
    }
  ],
  "transactionHash": "0xc1a7367251d4509f547fe4f654c050cbaf1ab6dc58ae11ddaca280a14a668a3a",
  "args": [],
  "solcInputHash": "76d3815e87d650a718b39e4e3f2b939b",
  "bytecode": "0x608060405234801561001057600080fd5b506001600055611102806100256000396000f3fe608060405234801561001057600080fd5b50600436106100cf5760003560e01c80637ef7e2e61161008c578063b269681d11610066578063b269681d146101ac578063ee947a7c146101b4578063f344be46146101bc578063fc0c546a146101cf576100cf565b80637ef7e2e6146101645780639703ef3514610179578063a230c5241461018c576100cf565b806319fcfab1146100d45780631dd92a66146100e95780632b1fd58a146100fc5780634423c5f11461010f57806346639dba1461013c578063623d9ac91461014f575b600080fd5b6100e76100e2366004610d78565b6101d7565b005b6100e76100f7366004610d78565b610350565b6100e761010a366004610d60565b61051b565b61012261011d366004610d60565b6106ca565b604051610133959493929190610fe0565b60405180910390f35b6100e761014a366004610c9c565b610706565b6101576107d4565b6040516101339190610dd0565b61016c6107e3565b6040516101339190610fb3565b6100e7610187366004610d60565b6107e9565b61019f61019a366004610c79565b6109b4565b6040516101339190610e21565b610157610a4a565b61016c610a59565b6100e76101ca366004610d99565b610a5f565b610157610c54565b600260005414156102035760405162461bcd60e51b81526004016101fa90610f7c565b60405180910390fd5b60026000556001546040516323b872dd60e01b8152620100009091046001600160a01b0316906323b872dd9061024190339030908790600401610de4565b602060405180830381600087803b15801561025b57600080fd5b505af115801561026f573d6000803e3d6000fd5b505050506040513d601f19601f820116820180604052508101906102939190610d46565b6102af5760405162461bcd60e51b81526004016101fa90610eff565b6005805460009081526006602052604081208481556001810180546001600160a01b031916331790556003810184905560048101805460ff1916905542600282015582549092909182919061030383611083565b91905055507fe6dcca7407be6b00aeaa48976c2ae152e8d7cc8a16074825c3546be778eda6fa8433838660405161033d9493929190610fbc565b60405180910390a1505060016000555050565b600260005414156103735760405162461bcd60e51b81526004016101fa90610f7c565b600260005560055481106103995760405162461bcd60e51b81526004016101fa90610e2c565b600081815260066020526040812090600482015460ff1660028111156103cf57634e487b7160e01b600052602160045260246000fd5b146103ec5760405162461bcd60e51b81526004016101fa90610ed9565b60018101546001600160a01b031633146104185760405162461bcd60e51b81526004016101fa90610eae565b6001546040516323b872dd60e01b8152620100009091046001600160a01b0316906323b872dd9061045190339030908890600401610de4565b602060405180830381600087803b15801561046b57600080fd5b505af115801561047f573d6000803e3d6000fd5b505050506040513d601f19601f820116820180604052508101906104a39190610d46565b6104bf5760405162461bcd60e51b81526004016101fa90610eff565b828160000160008282546104d39190611054565b909155505080546040517eaf2e2a3e39505661009eb9f5ad582e286bfa100a4a613d3889d6454689423491610509918590611032565b60405180910390a15050600160005550565b610524336109b4565b6105405760405162461bcd60e51b81526004016101fa90610e80565b600260005414156105635760405162461bcd60e51b81526004016101fa90610f7c565b600260005560055481106105895760405162461bcd60e51b81526004016101fa90610e2c565b600081815260066020526040812090600482015460ff1660028111156105bf57634e487b7160e01b600052602160045260246000fd5b146105dc5760405162461bcd60e51b81526004016101fa90610ed9565b6004810180546001919060ff191682800217905550600154600354825460405163a9059cbb60e01b81526001600160a01b036201000090940484169363a9059cbb9361062d93911691600401610e08565b602060405180830381600087803b15801561064757600080fd5b505af115801561065b573d6000803e3d6000fd5b505050506040513d601f19601f8201168201806040525081019061067f9190610d46565b61068857600080fd5b7f68113ca7b748f7d17637d79856900bc9336b88166e726bc9b55c62a39408b40733836040516106b9929190610e08565b60405180910390a150506001600055565b6006602052600090815260409020805460018201546002830154600384015460049094015492936001600160a01b039092169290919060ff1685565b600154610100900460ff168061071f575060015460ff16155b61073b5760405162461bcd60e51b81526004016101fa90610f2e565b600154610100900460ff16158015610765576001805460ff1961ff00199091166101001716811790555b600180546001600160a01b03808816620100000262010000600160b01b031990921691909117909155600280548683166001600160a01b0319918216179091556003805492861692909116919091179055600482905580156107cd576001805461ff00191690555b5050505050565b6002546001600160a01b031681565b60055481565b6002600054141561080c5760405162461bcd60e51b81526004016101fa90610f7c565b600260005560055481106108325760405162461bcd60e51b81526004016101fa90610e2c565b600081815260066020526040812090600482015460ff16600281111561086857634e487b7160e01b600052602160045260246000fd5b146108855760405162461bcd60e51b81526004016101fa90610ed9565b60018101546001600160a01b031633146108b15760405162461bcd60e51b81526004016101fa90610eae565b4260045482600201546108c49190611054565b106108e15760405162461bcd60e51b81526004016101fa90610e51565b60048181018054600260ff19909116179055600154825460405163a9059cbb60e01b8152620100009092046001600160a01b03169263a9059cbb9261092a923392909101610e08565b602060405180830381600087803b15801561094457600080fd5b505af1158015610958573d6000803e3d6000fd5b505050506040513d601f19601f8201168201806040525081019061097c9190610d46565b61098557600080fd5b7ff72c9cb76aa633bc9310fa98738d474339fdf2f23dfac70ccbd65e593f6654df826040516106b99190610fb3565b60025460405163022b92c360e21b815260009182916001600160a01b03909116906308ae4b0c906109e9908690600401610dd0565b60c06040518083038186803b158015610a0157600080fd5b505afa158015610a15573d6000803e3d6000fd5b505050506040513d601f19601f82011682018060405250810190610a399190610cec565b50505090151593505050505b919050565b6003546001600160a01b031681565b60045481565b60026000541415610a825760405162461bcd60e51b81526004016101fa90610f7c565b600260005560055463ffffffff821610610aae5760405162461bcd60e51b81526004016101fa90610e2c565b63ffffffff8116600090815260066020526040812090600482015460ff166002811115610aeb57634e487b7160e01b600052602160045260246000fd5b14610b085760405162461bcd60e51b81526004016101fa90610ed9565b60018101546001600160a01b03163314610b345760405162461bcd60e51b81526004016101fa90610eae565b426004548260020154610b479190611054565b10610b645760405162461bcd60e51b81526004016101fa90610e51565b82816000016000828254610b78919061106c565b909155505060015460405163a9059cbb60e01b8152620100009091046001600160a01b03169063a9059cbb90610bb49033908790600401610e08565b602060405180830381600087803b158015610bce57600080fd5b505af1158015610be2573d6000803e3d6000fd5b505050506040513d601f19601f82011682018060405250810190610c069190610d46565b610c225760405162461bcd60e51b81526004016101fa90610eff565b80546040517f6415d97b7a9df23899954c482911f3fc2cb8afff4b6b15e788859e1307de227a91610509918590611040565b6001546201000090046001600160a01b031681565b80518015158114610a4557600080fd5b600060208284031215610c8a578081fd5b8135610c95816110b4565b9392505050565b60008060008060808587031215610cb1578283fd5b8435610cbc816110b4565b93506020850135610ccc816110b4565b92506040850135610cdc816110b4565b9396929550929360600135925050565b60008060008060008060c08789031215610d04578182fd5b8651610d0f816110b4565b6020880151604089015191975095509350610d2c60608801610c69565b92506080870151915060a087015190509295509295509295565b600060208284031215610d57578081fd5b610c9582610c69565b600060208284031215610d71578081fd5b5035919050565b60008060408385031215610d8a578182fd5b50508035926020909101359150565b60008060408385031215610dab578182fd5b82359150602083013563ffffffff81168114610dc5578182fd5b809150509250929050565b6001600160a01b0391909116815260200190565b6001600160a01b039384168152919092166020820152604081019190915260600190565b6001600160a01b03929092168252602082015260400190565b901515815260200190565b6020808252600b908201526a1a5b9d985b1a5908189a5960aa1b604082015260600190565b6020808252601590820152743637b1b5bab82832b934b7b2103737ba1037bb32b960591b604082015260600190565b6020808252601490820152730dcdee840dacadac4cae440decc40daded8dec6d60631b604082015260600190565b60208082526011908201527036bab9ba1031329039bab136b4ba3a32b960791b604082015260600190565b6020808252600c908201526b62696420696e61637469766560a01b604082015260600190565b6020808252601590820152741d1bdad95b881d1c985b9cd9995c8819985a5b1959605a1b604082015260600190565b6020808252602e908201527f496e697469616c697a61626c653a20636f6e747261637420697320616c72656160408201526d191e481a5b9a5d1a585b1a5e995960921b606082015260800190565b6020808252601f908201527f5265656e7472616e637947756172643a207265656e7472616e742063616c6c00604082015260600190565b90815260200190565b9384526001600160a01b039290921660208401526040830152606082015260800190565b8581526001600160a01b0385166020820152604081018490526060810183905260a081016003831061102257634e487b7160e01b600052602160045260246000fd5b8260808301529695505050505050565b918252602082015260400190565b91825263ffffffff16602082015260400190565b600082198211156110675761106761109e565b500190565b60008282101561107e5761107e61109e565b500390565b60006000198214156110975761109761109e565b5060010190565b634e487b7160e01b600052601160045260246000fd5b6001600160a01b03811681146110c957600080fd5b5056fea26469706673582212209159807ad753892a404b4142c1fc0de306b5c45059cb5f21c26c95aad4a837f064736f6c63430008000033",
  "devdoc": {
    "kind": "dev",
    "methods": {},
    "version": 1
  },
  "userdoc": {
    "kind": "user",
    "methods": {},
    "version": 1
  },
  "storageLayout": {
    "storage": [
      {
        "astId": 709,
        "contract": "contracts/GuildAuctionQueue.sol:GuildAuctionQueue",
        "label": "_status",
        "offset": 0,
        "slot": "0",
        "type": "t_uint256"
      },
      {
        "astId": 658,
        "contract": "contracts/GuildAuctionQueue.sol:GuildAuctionQueue",
        "label": "_initialized",
        "offset": 0,
        "slot": "1",
        "type": "t_bool"
      },
      {
        "astId": 661,
        "contract": "contracts/GuildAuctionQueue.sol:GuildAuctionQueue",
        "label": "_initializing",
        "offset": 1,
        "slot": "1",
        "type": "t_bool"
      },
      {
        "astId": 12,
        "contract": "contracts/GuildAuctionQueue.sol:GuildAuctionQueue",
        "label": "token",
        "offset": 2,
        "slot": "1",
        "type": "t_contract(IERC20)569"
      },
      {
        "astId": 15,
        "contract": "contracts/GuildAuctionQueue.sol:GuildAuctionQueue",
        "label": "moloch",
        "offset": 0,
        "slot": "2",
        "type": "t_contract(IMOLOCH)652"
      },
      {
        "astId": 17,
        "contract": "contracts/GuildAuctionQueue.sol:GuildAuctionQueue",
        "label": "destination",
        "offset": 0,
        "slot": "3",
        "type": "t_address"
      },
      {
        "astId": 19,
        "contract": "contracts/GuildAuctionQueue.sol:GuildAuctionQueue",
        "label": "lockupPeriod",
        "offset": 0,
        "slot": "4",
        "type": "t_uint256"
      },
      {
        "astId": 21,
        "contract": "contracts/GuildAuctionQueue.sol:GuildAuctionQueue",
        "label": "newBidId",
        "offset": 0,
        "slot": "5",
        "type": "t_uint256"
      },
      {
        "astId": 26,
        "contract": "contracts/GuildAuctionQueue.sol:GuildAuctionQueue",
        "label": "bids",
        "offset": 0,
        "slot": "6",
        "type": "t_mapping(t_uint256,t_struct(Bid)42_storage)"
      }
    ],
    "types": {
      "t_address": {
        "encoding": "inplace",
        "label": "address",
        "numberOfBytes": "20"
      },
      "t_bool": {
        "encoding": "inplace",
        "label": "bool",
        "numberOfBytes": "1"
      },
      "t_bytes32": {
        "encoding": "inplace",
        "label": "bytes32",
        "numberOfBytes": "32"
      },
      "t_contract(IERC20)569": {
        "encoding": "inplace",
        "label": "contract IERC20",
        "numberOfBytes": "20"
      },
      "t_contract(IMOLOCH)652": {
        "encoding": "inplace",
        "label": "contract IMOLOCH",
        "numberOfBytes": "20"
      },
      "t_enum(BidStatus)30": {
        "encoding": "inplace",
        "label": "enum GuildAuctionQueue.BidStatus",
        "numberOfBytes": "1"
      },
      "t_mapping(t_uint256,t_struct(Bid)42_storage)": {
        "encoding": "mapping",
        "key": "t_uint256",
        "label": "mapping(uint256 => struct GuildAuctionQueue.Bid)",
        "numberOfBytes": "32",
        "value": "t_struct(Bid)42_storage"
      },
      "t_struct(Bid)42_storage": {
        "encoding": "inplace",
        "label": "struct GuildAuctionQueue.Bid",
        "members": [
          {
            "astId": 32,
            "contract": "contracts/GuildAuctionQueue.sol:GuildAuctionQueue",
            "label": "amount",
            "offset": 0,
            "slot": "0",
            "type": "t_uint256"
          },
          {
            "astId": 34,
            "contract": "contracts/GuildAuctionQueue.sol:GuildAuctionQueue",
            "label": "submitter",
            "offset": 0,
            "slot": "1",
            "type": "t_address"
          },
          {
            "astId": 36,
            "contract": "contracts/GuildAuctionQueue.sol:GuildAuctionQueue",
            "label": "createdAt",
            "offset": 0,
            "slot": "2",
            "type": "t_uint256"
          },
          {
            "astId": 38,
            "contract": "contracts/GuildAuctionQueue.sol:GuildAuctionQueue",
            "label": "details",
            "offset": 0,
            "slot": "3",
            "type": "t_bytes32"
          },
          {
            "astId": 41,
            "contract": "contracts/GuildAuctionQueue.sol:GuildAuctionQueue",
            "label": "status",
            "offset": 0,
            "slot": "4",
            "type": "t_enum(BidStatus)30"
          }
        ],
        "numberOfBytes": "160"
      },
      "t_uint256": {
        "encoding": "inplace",
        "label": "uint256",
        "numberOfBytes": "32"
      }
    }
  }
}