{
  "address": "0x245e5B56C18B18aC2d72F94C5F7bE1D52497A8aD",
  "abi": [
    {
      "inputs": [
        {
          "internalType": "address",
          "name": "_token",
          "type": "address"
        },
        {
          "internalType": "address",
          "name": "_moloch",
          "type": "address"
        },
        {
          "internalType": "address",
          "name": "_destination",
          "type": "address"
        },
        {
          "internalType": "uint256",
          "name": "_lockupPeriod",
          "type": "uint256"
        }
      ],
      "stateMutability": "nonpayable",
      "type": "constructor"
    },
    {
      "anonymous": false,
      "inputs": [
        {
          "indexed": false,
          "internalType": "address",
          "name": "acceptedBy",
          "type": "address"
        },
        {
          "indexed": false,
          "internalType": "uint256",
          "name": "id",
          "type": "uint256"
        }
      ],
      "name": "BidAccepted",
      "type": "event"
    },
    {
      "anonymous": false,
      "inputs": [
        {
          "indexed": false,
          "internalType": "uint256",
          "name": "id",
          "type": "uint256"
        }
      ],
      "name": "BidCanceled",
      "type": "event"
    },
    {
      "anonymous": false,
      "inputs": [
        {
          "indexed": false,
          "internalType": "uint256",
          "name": "newAmount",
          "type": "uint256"
        },
        {
          "indexed": false,
          "internalType": "uint256",
          "name": "id",
          "type": "uint256"
        }
      ],
      "name": "BidIncreased",
      "type": "event"
    },
    {
      "anonymous": false,
      "inputs": [
        {
          "indexed": false,
          "internalType": "uint256",
          "name": "newAmount",
          "type": "uint256"
        },
        {
          "indexed": false,
          "internalType": "uint256",
          "name": "id",
          "type": "uint256"
        }
      ],
      "name": "BidWithdrawn",
      "type": "event"
    },
    {
      "anonymous": false,
      "inputs": [
        {
          "indexed": false,
          "internalType": "uint256",
          "name": "amount",
          "type": "uint256"
        },
        {
          "indexed": false,
          "internalType": "address",
          "name": "submitter",
          "type": "address"
        },
        {
          "indexed": false,
          "internalType": "uint256",
          "name": "id",
          "type": "uint256"
        },
        {
          "indexed": false,
          "internalType": "bytes32",
          "name": "details",
          "type": "bytes32"
        }
      ],
      "name": "NewBid",
      "type": "event"
    },
    {
      "inputs": [
        {
          "internalType": "uint256",
          "name": "_id",
          "type": "uint256"
        }
      ],
      "name": "acceptBid",
      "outputs": [],
      "stateMutability": "nonpayable",
      "type": "function"
    },
    {
      "inputs": [
        {
          "internalType": "uint256",
          "name": "",
          "type": "uint256"
        }
      ],
      "name": "bids",
      "outputs": [
        {
          "internalType": "uint256",
          "name": "amount",
          "type": "uint256"
        },
        {
          "internalType": "address",
          "name": "submitter",
          "type": "address"
        },
        {
          "internalType": "uint256",
          "name": "createdAt",
          "type": "uint256"
        },
        {
          "internalType": "bytes32",
          "name": "details",
          "type": "bytes32"
        },
        {
          "internalType": "enum GuildAuctionQueue.BidStatus",
          "name": "status",
          "type": "uint8"
        }
      ],
      "stateMutability": "view",
      "type": "function"
    },
    {
      "inputs": [
        {
          "internalType": "uint256",
          "name": "_id",
          "type": "uint256"
        }
      ],
      "name": "cancelBid",
      "outputs": [],
      "stateMutability": "nonpayable",
      "type": "function"
    },
    {
      "inputs": [],
      "name": "destination",
      "outputs": [
        {
          "internalType": "address",
          "name": "",
          "type": "address"
        }
      ],
      "stateMutability": "view",
      "type": "function"
    },
    {
      "inputs": [
        {
          "internalType": "uint256",
          "name": "_amount",
          "type": "uint256"
        },
        {
          "internalType": "uint256",
          "name": "_id",
          "type": "uint256"
        }
      ],
      "name": "increaseBid",
      "outputs": [],
      "stateMutability": "nonpayable",
      "type": "function"
    },
    {
      "inputs": [
        {
          "internalType": "address",
          "name": "user",
          "type": "address"
        }
      ],
      "name": "isMember",
      "outputs": [
        {
          "internalType": "bool",
          "name": "",
          "type": "bool"
        }
      ],
      "stateMutability": "view",
      "type": "function"
    },
    {
      "inputs": [],
      "name": "lockupPeriod",
      "outputs": [
        {
          "internalType": "uint256",
          "name": "",
          "type": "uint256"
        }
      ],
      "stateMutability": "view",
      "type": "function"
    },
    {
      "inputs": [],
      "name": "moloch",
      "outputs": [
        {
          "internalType": "contract IMOLOCH",
          "name": "",
          "type": "address"
        }
      ],
      "stateMutability": "view",
      "type": "function"
    },
    {
      "inputs": [],
      "name": "newBidId",
      "outputs": [
        {
          "internalType": "uint256",
          "name": "",
          "type": "uint256"
        }
      ],
      "stateMutability": "view",
      "type": "function"
    },
    {
      "inputs": [
        {
          "internalType": "uint256",
          "name": "_amount",
          "type": "uint256"
        },
        {
          "internalType": "bytes32",
          "name": "_details",
          "type": "bytes32"
        }
      ],
      "name": "submitBid",
      "outputs": [],
      "stateMutability": "nonpayable",
      "type": "function"
    },
    {
      "inputs": [],
      "name": "token",
      "outputs": [
        {
          "internalType": "contract IERC20",
          "name": "",
          "type": "address"
        }
      ],
      "stateMutability": "view",
      "type": "function"
    },
    {
      "inputs": [
        {
          "internalType": "uint256",
          "name": "_amount",
          "type": "uint256"
        },
        {
          "internalType": "uint32",
          "name": "_id",
          "type": "uint32"
        }
      ],
      "name": "withdrawBid",
      "outputs": [],
      "stateMutability": "nonpayable",
      "type": "function"
    }
  ],
  "transactionHash": "0x894262abf35e5d333d28167d3be13ad63306b53c88a8acbfe0deb03ec99b6f0e",
  "args": [
    "0x982e00b16c313e979c0947b85230907fce45d50e",
    "0xe189a9c5acfd2e53c4663150b2703b9ffad224ff",
    "0x03B4E80b96D7F715AA21AABC56F75fecfF89a4DB",
    120
  ],
  "solcInputHash": "f5b20df5a17e4e5f7aaee97ced11042f",
  "bytecode": "0x608060405234801561001057600080fd5b5060405161104a38038061104a83398101604081905261002f91610095565b6001600081905580546001600160a01b03199081166001600160a01b03968716179091556002805482169486169490941790935560038054909316919093161790556004556100df565b80516001600160a01b038116811461009057600080fd5b919050565b600080600080608085870312156100aa578384fd5b6100b385610079565b93506100c160208601610079565b92506100cf60408601610079565b6060959095015193969295505050565b610f5c806100ee6000396000f3fe608060405234801561001057600080fd5b50600436106100b45760003560e01c80639703ef35116100715780639703ef351461014b578063a230c5241461015e578063b269681d1461017e578063ee947a7c14610186578063f344be461461018e578063fc0c546a146101a1576100b4565b806319fcfab1146100b95780631dd92a66146100ce5780632b1fd58a146100e15780634423c5f1146100f4578063623d9ac9146101215780637ef7e2e614610136575b600080fd5b6100cc6100c7366004610c20565b6101a9565b005b6100cc6100dc366004610c20565b61031b565b6100cc6100ef366004610c08565b6104e1565b610107610102366004610c08565b61067b565b604051610118959493929190610e3a565b60405180910390f35b6101296106b7565b6040516101189190610c78565b61013e6106c6565b6040516101189190610e0d565b6100cc610159366004610c08565b6106cc565b61017161016c366004610b71565b6108a1565b6040516101189190610cc9565b610129610937565b61013e610946565b6100cc61019c366004610c41565b61094c565b610129610b2e565b600260005414156101d55760405162461bcd60e51b81526004016101cc90610dd6565b60405180910390fd5b600260008181556005805482526006602052604082208581556001810180546001600160a01b031916331790556003810185905560048101805460ff19169055429381019390935580549182919061022c83610edd565b90915550506001546040516323b872dd60e01b81526001600160a01b03909116906323b872dd9061026590339030908990600401610c8c565b602060405180830381600087803b15801561027f57600080fd5b505af1158015610293573d6000803e3d6000fd5b505050506040513d601f19601f820116820180604052508101906102b79190610bee565b6102d35760405162461bcd60e51b81526004016101cc90610da7565b7fe6dcca7407be6b00aeaa48976c2ae152e8d7cc8a16074825c3546be778eda6fa843383866040516103089493929190610e16565b60405180910390a1505060016000555050565b6002600054141561033e5760405162461bcd60e51b81526004016101cc90610dd6565b600260005560055481106103645760405162461bcd60e51b81526004016101cc90610cd4565b600081815260066020526040812090600482015460ff16600281111561039a57634e487b7160e01b600052602160045260246000fd5b146103b75760405162461bcd60e51b81526004016101cc90610d81565b60018101546001600160a01b031633146103e35760405162461bcd60e51b81526004016101cc90610d56565b828160000160008282546103f79190610eae565b90915550506001546040516323b872dd60e01b81526001600160a01b03909116906323b872dd9061043090339030908890600401610c8c565b602060405180830381600087803b15801561044a57600080fd5b505af115801561045e573d6000803e3d6000fd5b505050506040513d601f19601f820116820180604052508101906104829190610bee565b61049e5760405162461bcd60e51b81526004016101cc90610da7565b80546040517eaf2e2a3e39505661009eb9f5ad582e286bfa100a4a613d3889d64546894234916104cf918590610e8c565b60405180910390a15050600160005550565b6104ea336108a1565b6105065760405162461bcd60e51b81526004016101cc90610d28565b600260005414156105295760405162461bcd60e51b81526004016101cc90610dd6565b6002600055600554811061054f5760405162461bcd60e51b81526004016101cc90610cd4565b600081815260066020526040812090600482015460ff16600281111561058557634e487b7160e01b600052602160045260246000fd5b146105a25760405162461bcd60e51b81526004016101cc90610d81565b6004818101805460ff19166001908117909155825460008455905460035460405163a9059cbb60e01b815292936001600160a01b039283169363a9059cbb936105ef931691869101610cb0565b602060405180830381600087803b15801561060957600080fd5b505af115801561061d573d6000803e3d6000fd5b505050506040513d601f19601f820116820180604052508101906106419190610bee565b61064a57600080fd5b7f68113ca7b748f7d17637d79856900bc9336b88166e726bc9b55c62a39408b40733846040516104cf929190610cb0565b6006602052600090815260409020805460018201546002830154600384015460049094015492936001600160a01b039092169290919060ff1685565b6002546001600160a01b031681565b60055481565b600260005414156106ef5760405162461bcd60e51b81526004016101cc90610dd6565b600260005560055481106107155760405162461bcd60e51b81526004016101cc90610cd4565b600081815260066020526040812090600482015460ff16600281111561074b57634e487b7160e01b600052602160045260246000fd5b146107685760405162461bcd60e51b81526004016101cc90610d81565b60018101546001600160a01b031633146107945760405162461bcd60e51b81526004016101cc90610d56565b4260045482600201546107a79190610eae565b106107c45760405162461bcd60e51b81526004016101cc90610cf9565b6004818101805460ff19166002179055600154825460405163a9059cbb60e01b81526001600160a01b039092169263a9059cbb92610806923392909101610cb0565b602060405180830381600087803b15801561082057600080fd5b505af1158015610834573d6000803e3d6000fd5b505050506040513d601f19601f820116820180604052508101906108589190610bee565b61086157600080fd5b7ff72c9cb76aa633bc9310fa98738d474339fdf2f23dfac70ccbd65e593f6654df826040516108909190610e0d565b60405180910390a150506001600055565b60025460405163022b92c360e21b815260009182916001600160a01b03909116906308ae4b0c906108d6908690600401610c78565b60c06040518083038186803b1580156108ee57600080fd5b505afa158015610902573d6000803e3d6000fd5b505050506040513d601f19601f820116820180604052508101906109269190610b94565b50505090151593505050505b919050565b6003546001600160a01b031681565b60045481565b6002600054141561096f5760405162461bcd60e51b81526004016101cc90610dd6565b600260005560055463ffffffff82161061099b5760405162461bcd60e51b81526004016101cc90610cd4565b63ffffffff8116600090815260066020526040812090600482015460ff1660028111156109d857634e487b7160e01b600052602160045260246000fd5b146109f55760405162461bcd60e51b81526004016101cc90610d81565b60018101546001600160a01b03163314610a215760405162461bcd60e51b81526004016101cc90610d56565b426004548260020154610a349190610eae565b10610a515760405162461bcd60e51b81526004016101cc90610cf9565b610a5b8382610b3d565b5060015460405163a9059cbb60e01b81526001600160a01b039091169063a9059cbb90610a8e9033908790600401610cb0565b602060405180830381600087803b158015610aa857600080fd5b505af1158015610abc573d6000803e3d6000fd5b505050506040513d601f19601f82011682018060405250810190610ae09190610bee565b610afc5760405162461bcd60e51b81526004016101cc90610da7565b80546040517f6415d97b7a9df23899954c482911f3fc2cb8afff4b6b15e788859e1307de227a916104cf918590610e9a565b6001546001600160a01b031681565b600082826000016000828254610b539190610ec6565b909155506001949350505050565b8051801515811461093257600080fd5b600060208284031215610b82578081fd5b8135610b8d81610f0e565b9392505050565b60008060008060008060c08789031215610bac578182fd5b8651610bb781610f0e565b6020880151604089015191975095509350610bd460608801610b61565b92506080870151915060a087015190509295509295509295565b600060208284031215610bff578081fd5b610b8d82610b61565b600060208284031215610c19578081fd5b5035919050565b60008060408385031215610c32578182fd5b50508035926020909101359150565b60008060408385031215610c53578182fd5b82359150602083013563ffffffff81168114610c6d578182fd5b809150509250929050565b6001600160a01b0391909116815260200190565b6001600160a01b039384168152919092166020820152604081019190915260600190565b6001600160a01b03929092168252602082015260400190565b901515815260200190565b6020808252600b908201526a1a5b9d985b1a5908189a5960aa1b604082015260600190565b6020808252601590820152743637b1b5bab82832b934b7b2103737ba1037bb32b960591b604082015260600190565b6020808252601490820152730dcdee840dacadac4cae440decc40daded8dec6d60631b604082015260600190565b60208082526011908201527036bab9ba1031329039bab136b4ba3a32b960791b604082015260600190565b6020808252600c908201526b62696420696e61637469766560a01b604082015260600190565b6020808252601590820152741d1bdad95b881d1c985b9cd9995c8819985a5b1959605a1b604082015260600190565b6020808252601f908201527f5265656e7472616e637947756172643a207265656e7472616e742063616c6c00604082015260600190565b90815260200190565b9384526001600160a01b039290921660208401526040830152606082015260800190565b8581526001600160a01b0385166020820152604081018490526060810183905260a0810160038310610e7c57634e487b7160e01b600052602160045260246000fd5b8260808301529695505050505050565b918252602082015260400190565b91825263ffffffff16602082015260400190565b60008219821115610ec157610ec1610ef8565b500190565b600082821015610ed857610ed8610ef8565b500390565b6000600019821415610ef157610ef1610ef8565b5060010190565b634e487b7160e01b600052601160045260246000fd5b6001600160a01b0381168114610f2357600080fd5b5056fea2646970667358221220a77b617ace62eb3f531fe4ee5b6eb29614b90db148e9da940fbdae025058a18564736f6c63430008000033",
  "devdoc": {
    "kind": "dev",
    "methods": {},
    "version": 1
  },
  "userdoc": {
    "kind": "user",
    "methods": {},
    "version": 1
  },
  "storageLayout": {
    "storage": [
      {
        "astId": 525,
        "contract": "contracts/GuildAuctionQueue.sol:GuildAuctionQueue",
        "label": "_status",
        "offset": 0,
        "slot": "0",
        "type": "t_uint256"
      },
      {
        "astId": 9,
        "contract": "contracts/GuildAuctionQueue.sol:GuildAuctionQueue",
        "label": "token",
        "offset": 0,
        "slot": "1",
        "type": "t_contract(IERC20)632"
      },
      {
        "astId": 12,
        "contract": "contracts/GuildAuctionQueue.sol:GuildAuctionQueue",
        "label": "moloch",
        "offset": 0,
        "slot": "2",
        "type": "t_contract(IMOLOCH)715"
      },
      {
        "astId": 14,
        "contract": "contracts/GuildAuctionQueue.sol:GuildAuctionQueue",
        "label": "destination",
        "offset": 0,
        "slot": "3",
        "type": "t_address"
      },
      {
        "astId": 16,
        "contract": "contracts/GuildAuctionQueue.sol:GuildAuctionQueue",
        "label": "lockupPeriod",
        "offset": 0,
        "slot": "4",
        "type": "t_uint256"
      },
      {
        "astId": 18,
        "contract": "contracts/GuildAuctionQueue.sol:GuildAuctionQueue",
        "label": "newBidId",
        "offset": 0,
        "slot": "5",
        "type": "t_uint256"
      },
      {
        "astId": 23,
        "contract": "contracts/GuildAuctionQueue.sol:GuildAuctionQueue",
        "label": "bids",
        "offset": 0,
        "slot": "6",
        "type": "t_mapping(t_uint256,t_struct(Bid)39_storage)"
      }
    ],
    "types": {
      "t_address": {
        "encoding": "inplace",
        "label": "address",
        "numberOfBytes": "20"
      },
      "t_bytes32": {
        "encoding": "inplace",
        "label": "bytes32",
        "numberOfBytes": "32"
      },
      "t_contract(IERC20)632": {
        "encoding": "inplace",
        "label": "contract IERC20",
        "numberOfBytes": "20"
      },
      "t_contract(IMOLOCH)715": {
        "encoding": "inplace",
        "label": "contract IMOLOCH",
        "numberOfBytes": "20"
      },
      "t_enum(BidStatus)27": {
        "encoding": "inplace",
        "label": "enum GuildAuctionQueue.BidStatus",
        "numberOfBytes": "1"
      },
      "t_mapping(t_uint256,t_struct(Bid)39_storage)": {
        "encoding": "mapping",
        "key": "t_uint256",
        "label": "mapping(uint256 => struct GuildAuctionQueue.Bid)",
        "numberOfBytes": "32",
        "value": "t_struct(Bid)39_storage"
      },
      "t_struct(Bid)39_storage": {
        "encoding": "inplace",
        "label": "struct GuildAuctionQueue.Bid",
        "members": [
          {
            "astId": 29,
            "contract": "contracts/GuildAuctionQueue.sol:GuildAuctionQueue",
            "label": "amount",
            "offset": 0,
            "slot": "0",
            "type": "t_uint256"
          },
          {
            "astId": 31,
            "contract": "contracts/GuildAuctionQueue.sol:GuildAuctionQueue",
            "label": "submitter",
            "offset": 0,
            "slot": "1",
            "type": "t_address"
          },
          {
            "astId": 33,
            "contract": "contracts/GuildAuctionQueue.sol:GuildAuctionQueue",
            "label": "createdAt",
            "offset": 0,
            "slot": "2",
            "type": "t_uint256"
          },
          {
            "astId": 35,
            "contract": "contracts/GuildAuctionQueue.sol:GuildAuctionQueue",
            "label": "details",
            "offset": 0,
            "slot": "3",
            "type": "t_bytes32"
          },
          {
            "astId": 38,
            "contract": "contracts/GuildAuctionQueue.sol:GuildAuctionQueue",
            "label": "status",
            "offset": 0,
            "slot": "4",
            "type": "t_enum(BidStatus)27"
          }
        ],
        "numberOfBytes": "160"
      },
      "t_uint256": {
        "encoding": "inplace",
        "label": "uint256",
        "numberOfBytes": "32"
      }
    }
  }
}