{
  "address": "0xC2C892BDa73905fDb5d7806018225c9151D6752F",
  "abi": [
    {
      "anonymous": false,
      "inputs": [
        {
          "indexed": false,
          "internalType": "address",
          "name": "acceptedBy",
          "type": "address"
        },
        {
          "indexed": false,
          "internalType": "uint256",
          "name": "id",
          "type": "uint256"
        }
      ],
      "name": "BidAccepted",
      "type": "event"
    },
    {
      "anonymous": false,
      "inputs": [
        {
          "indexed": false,
          "internalType": "uint256",
          "name": "id",
          "type": "uint256"
        }
      ],
      "name": "BidCanceled",
      "type": "event"
    },
    {
      "anonymous": false,
      "inputs": [
        {
          "indexed": false,
          "internalType": "uint256",
          "name": "newAmount",
          "type": "uint256"
        },
        {
          "indexed": false,
          "internalType": "uint256",
          "name": "id",
          "type": "uint256"
        }
      ],
      "name": "BidIncreased",
      "type": "event"
    },
    {
      "anonymous": false,
      "inputs": [
        {
          "indexed": false,
          "internalType": "uint256",
          "name": "newAmount",
          "type": "uint256"
        },
        {
          "indexed": false,
          "internalType": "uint256",
          "name": "id",
          "type": "uint256"
        }
      ],
      "name": "BidWithdrawn",
      "type": "event"
    },
    {
      "anonymous": false,
      "inputs": [
        {
          "indexed": false,
          "internalType": "uint256",
          "name": "amount",
          "type": "uint256"
        },
        {
          "indexed": false,
          "internalType": "address",
          "name": "submitter",
          "type": "address"
        },
        {
          "indexed": false,
          "internalType": "uint256",
          "name": "id",
          "type": "uint256"
        },
        {
          "indexed": false,
          "internalType": "bytes32",
          "name": "details",
          "type": "bytes32"
        }
      ],
      "name": "NewBid",
      "type": "event"
    },
    {
      "inputs": [
        {
          "internalType": "uint256",
          "name": "_id",
          "type": "uint256"
        }
      ],
      "name": "acceptBid",
      "outputs": [],
      "stateMutability": "nonpayable",
      "type": "function"
    },
    {
      "inputs": [
        {
          "internalType": "uint256",
          "name": "",
          "type": "uint256"
        }
      ],
      "name": "bids",
      "outputs": [
        {
          "internalType": "uint256",
          "name": "amount",
          "type": "uint256"
        },
        {
          "internalType": "address",
          "name": "submitter",
          "type": "address"
        },
        {
          "internalType": "uint256",
          "name": "createdAt",
          "type": "uint256"
        },
        {
          "internalType": "enum GuildAuctionQueue.BidStatus",
          "name": "status",
          "type": "uint8"
        }
      ],
      "stateMutability": "view",
      "type": "function"
    },
    {
      "inputs": [
        {
          "internalType": "uint256",
          "name": "_id",
          "type": "uint256"
        }
      ],
      "name": "cancelBid",
      "outputs": [],
      "stateMutability": "nonpayable",
      "type": "function"
    },
    {
      "inputs": [
        {
          "internalType": "uint256",
          "name": "_newMin",
          "type": "uint256"
        }
      ],
      "name": "changeMinBid",
      "outputs": [],
      "stateMutability": "nonpayable",
      "type": "function"
    },
    {
      "inputs": [],
      "name": "destination",
      "outputs": [
        {
          "internalType": "address",
          "name": "",
          "type": "address"
        }
      ],
      "stateMutability": "view",
      "type": "function"
    },
    {
      "inputs": [
        {
          "internalType": "uint256",
          "name": "_amount",
          "type": "uint256"
        },
        {
          "internalType": "uint256",
          "name": "_id",
          "type": "uint256"
        }
      ],
      "name": "increaseBid",
      "outputs": [],
      "stateMutability": "nonpayable",
      "type": "function"
    },
    {
      "inputs": [
        {
          "internalType": "address",
          "name": "_owner",
          "type": "address"
        },
        {
          "internalType": "address",
          "name": "_token",
          "type": "address"
        },
        {
          "internalType": "address",
          "name": "_destination",
          "type": "address"
        },
        {
          "internalType": "uint256",
          "name": "_lockupPeriod",
          "type": "uint256"
        },
        {
          "internalType": "uint256",
          "name": "_minBid",
          "type": "uint256"
        },
        {
          "internalType": "uint256",
          "name": "_minShares",
          "type": "uint256"
        }
      ],
      "name": "init",
      "outputs": [],
      "stateMutability": "nonpayable",
      "type": "function"
    },
    {
      "inputs": [
        {
          "internalType": "address",
          "name": "user",
          "type": "address"
        }
      ],
      "name": "isMember",
      "outputs": [
        {
          "internalType": "bool",
          "name": "",
          "type": "bool"
        }
      ],
      "stateMutability": "view",
      "type": "function"
    },
    {
      "inputs": [],
      "name": "lockupPeriod",
      "outputs": [
        {
          "internalType": "uint256",
          "name": "",
          "type": "uint256"
        }
      ],
      "stateMutability": "view",
      "type": "function"
    },
    {
      "inputs": [],
      "name": "membersCanAccept",
      "outputs": [
        {
          "internalType": "uint256",
          "name": "",
          "type": "uint256"
        }
      ],
      "stateMutability": "view",
      "type": "function"
    },
    {
      "inputs": [],
      "name": "minBid",
      "outputs": [
        {
          "internalType": "uint256",
          "name": "",
          "type": "uint256"
        }
      ],
      "stateMutability": "view",
      "type": "function"
    },
    {
      "inputs": [],
      "name": "minShares",
      "outputs": [
        {
          "internalType": "uint256",
          "name": "",
          "type": "uint256"
        }
      ],
      "stateMutability": "view",
      "type": "function"
    },
    {
      "inputs": [],
      "name": "newBidId",
      "outputs": [
        {
          "internalType": "uint256",
          "name": "",
          "type": "uint256"
        }
      ],
      "stateMutability": "view",
      "type": "function"
    },
    {
      "inputs": [],
      "name": "owner",
      "outputs": [
        {
          "internalType": "address",
          "name": "",
          "type": "address"
        }
      ],
      "stateMutability": "view",
      "type": "function"
    },
    {
      "inputs": [
        {
          "internalType": "uint256",
          "name": "_amount",
          "type": "uint256"
        },
        {
          "internalType": "bytes32",
          "name": "_details",
          "type": "bytes32"
        }
      ],
      "name": "submitBid",
      "outputs": [
        {
          "internalType": "uint256",
          "name": "",
          "type": "uint256"
        }
      ],
      "stateMutability": "nonpayable",
      "type": "function"
    },
    {
      "inputs": [],
      "name": "token",
      "outputs": [
        {
          "internalType": "contract IERC20",
          "name": "",
          "type": "address"
        }
      ],
      "stateMutability": "view",
      "type": "function"
    },
    {
      "inputs": [
        {
          "internalType": "uint256",
          "name": "_amount",
          "type": "uint256"
        },
        {
          "internalType": "uint32",
          "name": "_id",
          "type": "uint32"
        }
      ],
      "name": "withdrawBid",
      "outputs": [],
      "stateMutability": "nonpayable",
      "type": "function"
    }
  ],
  "transactionHash": "0xf8c7353d968cfc56c01618e245e98f1410444071f65ef5b42723cff070e93cad",
  "args": [],
  "solcInputHash": "150f4e77362a1717e50e59685c48a02c",
  "bytecode": "0x608060405234801561001057600080fd5b506001600055611479806100256000396000f3fe608060405234801561001057600080fd5b506004361061010b5760003560e01c80637ef7e2e6116100a2578063b269681d11610071578063b269681d146101ff578063ce37387014610207578063ee947a7c1461021a578063f344be4614610222578063fc0c546a146102355761010b565b80637ef7e2e6146101af5780638da5cb5b146101b75780639703ef35146101cc578063a230c524146101df5761010b565b80633c3b1795116100de5780633c3b1795146101695780633e109a19146101715780634423c5f1146101795780637374e2f41461019c5761010b565b806319fcfab1146101105780631dd92a66146101395780632a993e621461014e5780632b1fd58a14610156575b600080fd5b61012361011e366004611037565b61023d565b6040516101309190611332565b60405180910390f35b61014c610147366004611037565b6103d5565b005b610123610574565b61014c61016436600461101f565b61057a565b61012361075f565b610123610765565b61018c61018736600461101f565b61076b565b604051610130949392919061135f565b61014c6101aa36600461101f565b61079f565b6101236107fb565b6101bf610801565b604051610130919061108f565b61014c6101da36600461101f565b610810565b6101f26101ed366004610f08565b6109db565b60405161013091906110e0565b6101bf610b79565b61014c610215366004610f47565b610b88565b610123610cba565b61014c610230366004611058565b610cc0565b6101bf610ee3565b60006002600054141561026b5760405162461bcd60e51b8152600401610262906112db565b60405180910390fd5b60026000556005548310156102925760405162461bcd60e51b815260040161026290611110565b6001546040516323b872dd60e01b8152620100009091046001600160a01b0316906323b872dd906102cb903390309088906004016110a3565b602060405180830381600087803b1580156102e557600080fd5b505af11580156102f9573d6000803e3d6000fd5b505050506040513d601f19601f8201168201806040525081019061031d9190611005565b6103395760405162461bcd60e51b81526004016102629061118a565b6008805460009081526009602052604081208581556001810180546001600160a01b0319163317905560038101805460ff19169055426002820155825490929091829190610386836113fa565b91905055507fe6dcca7407be6b00aeaa48976c2ae152e8d7cc8a16074825c3546be778eda6fa853383876040516103c0949392919061133b565b60405180910390a16001600055949350505050565b600260005414156103f85760405162461bcd60e51b8152600401610262906112db565b6002600055600854811061041e5760405162461bcd60e51b8152600401610262906110eb565b600081815260096020526040812090600382015460ff16600281111561045457634e487b7160e01b600052602160045260246000fd5b146104715760405162461bcd60e51b815260040161026290611164565b6001546040516323b872dd60e01b8152620100009091046001600160a01b0316906323b872dd906104aa903390309088906004016110a3565b602060405180830381600087803b1580156104c457600080fd5b505af11580156104d8573d6000803e3d6000fd5b505050506040513d601f19601f820116820180604052508101906104fc9190611005565b6105185760405162461bcd60e51b81526004016102629061118a565b8281600001600082825461052c91906113cb565b909155505080546040517eaf2e2a3e39505661009eb9f5ad582e286bfa100a4a613d3889d64546894234916105629185906113a9565b60405180910390a15050600160005550565b60065481565b600654600114156105af5761058e336109db565b6105aa5760405162461bcd60e51b8152600401610262906112ae565b6105d9565b6002546001600160a01b031633146105d95760405162461bcd60e51b815260040161026290611312565b600260005414156105fc5760405162461bcd60e51b8152600401610262906112db565b600260005560085481106106225760405162461bcd60e51b8152600401610262906110eb565b600081815260096020526040812090600382015460ff16600281111561065857634e487b7160e01b600052602160045260246000fd5b146106755760405162461bcd60e51b815260040161026290611164565b60038181018054600160ff199091168117909155549054825460405163a9059cbb60e01b81526001600160a01b036201000090940484169363a9059cbb936106c2939116916004016110c7565b602060405180830381600087803b1580156106dc57600080fd5b505af11580156106f0573d6000803e3d6000fd5b505050506040513d601f19601f820116820180604052508101906107149190611005565b61071d57600080fd5b7f68113ca7b748f7d17637d79856900bc9336b88166e726bc9b55c62a39408b407338360405161074e9291906110c7565b60405180910390a150506001600055565b60075481565b60055481565b600960205260009081526040902080546001820154600283015460039093015491926001600160a01b039091169160ff1684565b600260005414156107c25760405162461bcd60e51b8152600401610262906112db565b60026000819055546001600160a01b031633146107f15760405162461bcd60e51b815260040161026290611312565b6005556001600055565b60085481565b6002546001600160a01b031681565b600260005414156108335760405162461bcd60e51b8152600401610262906112db565b600260005560085481106108595760405162461bcd60e51b8152600401610262906110eb565b600081815260096020526040812090600382015460ff16600281111561088f57634e487b7160e01b600052602160045260246000fd5b146108ac5760405162461bcd60e51b815260040161026290611164565b60018101546001600160a01b031633146108d85760405162461bcd60e51b81526004016102629061128a565b4260045482600201546108eb91906113cb565b106109085760405162461bcd60e51b815260040161026290611135565b600381018054600260ff19909116179055600154815460405163a9059cbb60e01b8152620100009092046001600160a01b03169163a9059cbb91610951913391906004016110c7565b602060405180830381600087803b15801561096b57600080fd5b505af115801561097f573d6000803e3d6000fd5b505050506040513d601f19601f820116820180604052508101906109a39190611005565b6109ac57600080fd5b7ff72c9cb76aa633bc9310fa98738d474339fdf2f23dfac70ccbd65e593f6654df8260405161074e9190611332565b6002546040805163623d9ac960e01b815290516000926001600160a01b0316918391839163623d9ac9916004808301926020929190829003018186803b158015610a2457600080fd5b505afa158015610a38573d6000803e3d6000fd5b505050506040513d601f19601f82011682018060405250810190610a5c9190610f2b565b60405163100b05e560e21b815290915081906000906001600160a01b0383169063402c179490610a9090899060040161108f565b60206040518083038186803b158015610aa857600080fd5b505afa158015610abc573d6000803e3d6000fd5b505050506040513d601f19601f82011682018060405250810190610ae09190610f2b565b90506000826001600160a01b03166308ae4b0c836040518263ffffffff1660e01b8152600401610b10919061108f565b60c06040518083038186803b158015610b2857600080fd5b505afa158015610b3c573d6000803e3d6000fd5b505050506040513d601f19601f82011682018060405250810190610b609190610fab565b505060075490921015985050505050505050505b919050565b6003546001600160a01b031681565b600154610100900460ff1680610ba1575060015460ff16155b610bbd5760405162461bcd60e51b8152600401610262906111e8565b600154610100900460ff16158015610be7576001805460ff1961ff00199091166101001716811790555b6001600160a01b038616610c0d5760405162461bcd60e51b815260040161026290611263565b6001600160a01b038516610c335760405162461bcd60e51b815260040161026290611236565b8115610c4457600782905560016006555b600180546001600160a01b03808916620100000262010000600160b01b031990921691909117909155600380548783166001600160a01b0319918216179091556004869055600585905560028054928a16929091169190911790558015610cb1576001805461ff00191690555b50505050505050565b60045481565b60026000541415610ce35760405162461bcd60e51b8152600401610262906112db565b600260005560085463ffffffff821610610d0f5760405162461bcd60e51b8152600401610262906110eb565b63ffffffff8116600090815260096020526040812090600382015460ff166002811115610d4c57634e487b7160e01b600052602160045260246000fd5b14610d695760405162461bcd60e51b815260040161026290611164565b60018101546001600160a01b03163314610d955760405162461bcd60e51b81526004016102629061128a565b6005548154610da59085906113e3565b1015610dc35760405162461bcd60e51b8152600401610262906111b9565b426004548260020154610dd691906113cb565b10610df35760405162461bcd60e51b815260040161026290611135565b82816000016000828254610e0791906113e3565b909155505060015460405163a9059cbb60e01b8152620100009091046001600160a01b03169063a9059cbb90610e4390339087906004016110c7565b602060405180830381600087803b158015610e5d57600080fd5b505af1158015610e71573d6000803e3d6000fd5b505050506040513d601f19601f82011682018060405250810190610e959190611005565b610eb15760405162461bcd60e51b81526004016102629061118a565b80546040517f6415d97b7a9df23899954c482911f3fc2cb8afff4b6b15e788859e1307de227a916105629185906113b7565b6001546201000090046001600160a01b031681565b80518015158114610b7457600080fd5b600060208284031215610f19578081fd5b8135610f248161142b565b9392505050565b600060208284031215610f3c578081fd5b8151610f248161142b565b60008060008060008060c08789031215610f5f578182fd5b8635610f6a8161142b565b95506020870135610f7a8161142b565b94506040870135610f8a8161142b565b959894975094956060810135955060808101359460a0909101359350915050565b60008060008060008060c08789031215610fc3578182fd5b8651610fce8161142b565b6020880151604089015191975095509350610feb60608801610ef8565b92506080870151915060a087015190509295509295509295565b600060208284031215611016578081fd5b610f2482610ef8565b600060208284031215611030578081fd5b5035919050565b60008060408385031215611049578182fd5b50508035926020909101359150565b6000806040838503121561106a578182fd5b82359150602083013563ffffffff81168114611084578182fd5b809150509250929050565b6001600160a01b0391909116815260200190565b6001600160a01b039384168152919092166020820152604081019190915260600190565b6001600160a01b03929092168252602082015260400190565b901515815260200190565b6020808252600b908201526a1a5b9d985b1a5908189a5960aa1b604082015260600190565b6020808252600b908201526a62696420746f6f206c6f7760a81b604082015260600190565b6020808252601590820152743637b1b5bab82832b934b7b2103737ba1037bb32b960591b604082015260600190565b6020808252600c908201526b62696420696e61637469766560a01b604082015260600190565b6020808252601590820152741d1bdad95b881d1c985b9cd9995c8819985a5b1959605a1b604082015260600190565b60208082526015908201527472656d61696e696e672062696420746f6f206c6f7760581b604082015260600190565b6020808252602e908201527f496e697469616c697a61626c653a20636f6e747261637420697320616c72656160408201526d191e481a5b9a5d1a585b1a5e995960921b606082015260800190565b60208082526013908201527234b73b30b634b2103232b9ba34b730ba34b7b760691b604082015260600190565b6020808252600d908201526c34b73b30b634b2103a37b5b2b760991b604082015260600190565b6020808252600a908201526910b9bab136b4ba3a32b960b11b604082015260600190565b60208082526013908201527210b33ab6361036b7b637b1b41036b2b6b132b960691b604082015260600190565b6020808252601f908201527f5265656e7472616e637947756172643a207265656e7472616e742063616c6c00604082015260600190565b60208082526006908201526510b7bbb732b960d11b604082015260600190565b90815260200190565b9384526001600160a01b039290921660208401526040830152606082015260800190565b8481526001600160a01b038416602082015260408101839052608081016003831061139a57634e487b7160e01b600052602160045260246000fd5b82606083015295945050505050565b918252602082015260400190565b91825263ffffffff16602082015260400190565b600082198211156113de576113de611415565b500190565b6000828210156113f5576113f5611415565b500390565b600060001982141561140e5761140e611415565b5060010190565b634e487b7160e01b600052601160045260246000fd5b6001600160a01b038116811461144057600080fd5b5056fea2646970667358221220ed1a5425b315bcda04ee5a22d0dbaaf373e077bd639a11ddc7530cb0806f465e64736f6c63430008000033",
  "devdoc": {
    "kind": "dev",
    "methods": {},
    "version": 1
  },
  "userdoc": {
    "kind": "user",
    "methods": {},
    "version": 1
  },
  "storageLayout": {
    "storage": [
      {
        "astId": 56,
        "contract": "contracts/GuildAuctionQueue.sol:GuildAuctionQueue",
        "label": "_status",
        "offset": 0,
        "slot": "0",
        "type": "t_uint256"
      },
      {
        "astId": 5,
        "contract": "contracts/GuildAuctionQueue.sol:GuildAuctionQueue",
        "label": "_initialized",
        "offset": 0,
        "slot": "1",
        "type": "t_bool"
      },
      {
        "astId": 8,
        "contract": "contracts/GuildAuctionQueue.sol:GuildAuctionQueue",
        "label": "_initializing",
        "offset": 1,
        "slot": "1",
        "type": "t_bool"
      },
      {
        "astId": 732,
        "contract": "contracts/GuildAuctionQueue.sol:GuildAuctionQueue",
        "label": "token",
        "offset": 2,
        "slot": "1",
        "type": "t_contract(IERC20)670"
      },
      {
        "astId": 734,
        "contract": "contracts/GuildAuctionQueue.sol:GuildAuctionQueue",
        "label": "owner",
        "offset": 0,
        "slot": "2",
        "type": "t_address"
      },
      {
        "astId": 736,
        "contract": "contracts/GuildAuctionQueue.sol:GuildAuctionQueue",
        "label": "destination",
        "offset": 0,
        "slot": "3",
        "type": "t_address"
      },
      {
        "astId": 738,
        "contract": "contracts/GuildAuctionQueue.sol:GuildAuctionQueue",
        "label": "lockupPeriod",
        "offset": 0,
        "slot": "4",
        "type": "t_uint256"
      },
      {
        "astId": 740,
        "contract": "contracts/GuildAuctionQueue.sol:GuildAuctionQueue",
        "label": "minBid",
        "offset": 0,
        "slot": "5",
        "type": "t_uint256"
      },
      {
        "astId": 742,
        "contract": "contracts/GuildAuctionQueue.sol:GuildAuctionQueue",
        "label": "membersCanAccept",
        "offset": 0,
        "slot": "6",
        "type": "t_uint256"
      },
      {
        "astId": 744,
        "contract": "contracts/GuildAuctionQueue.sol:GuildAuctionQueue",
        "label": "minShares",
        "offset": 0,
        "slot": "7",
        "type": "t_uint256"
      },
      {
        "astId": 746,
        "contract": "contracts/GuildAuctionQueue.sol:GuildAuctionQueue",
        "label": "newBidId",
        "offset": 0,
        "slot": "8",
        "type": "t_uint256"
      },
      {
        "astId": 751,
        "contract": "contracts/GuildAuctionQueue.sol:GuildAuctionQueue",
        "label": "bids",
        "offset": 0,
        "slot": "9",
        "type": "t_mapping(t_uint256,t_struct(Bid)765_storage)"
      }
    ],
    "types": {
      "t_address": {
        "encoding": "inplace",
        "label": "address",
        "numberOfBytes": "20"
      },
      "t_bool": {
        "encoding": "inplace",
        "label": "bool",
        "numberOfBytes": "1"
      },
      "t_contract(IERC20)670": {
        "encoding": "inplace",
        "label": "contract IERC20",
        "numberOfBytes": "20"
      },
      "t_enum(BidStatus)755": {
        "encoding": "inplace",
        "label": "enum GuildAuctionQueue.BidStatus",
        "numberOfBytes": "1"
      },
      "t_mapping(t_uint256,t_struct(Bid)765_storage)": {
        "encoding": "mapping",
        "key": "t_uint256",
        "label": "mapping(uint256 => struct GuildAuctionQueue.Bid)",
        "numberOfBytes": "32",
        "value": "t_struct(Bid)765_storage"
      },
      "t_struct(Bid)765_storage": {
        "encoding": "inplace",
        "label": "struct GuildAuctionQueue.Bid",
        "members": [
          {
            "astId": 757,
            "contract": "contracts/GuildAuctionQueue.sol:GuildAuctionQueue",
            "label": "amount",
            "offset": 0,
            "slot": "0",
            "type": "t_uint256"
          },
          {
            "astId": 759,
            "contract": "contracts/GuildAuctionQueue.sol:GuildAuctionQueue",
            "label": "submitter",
            "offset": 0,
            "slot": "1",
            "type": "t_address"
          },
          {
            "astId": 761,
            "contract": "contracts/GuildAuctionQueue.sol:GuildAuctionQueue",
            "label": "createdAt",
            "offset": 0,
            "slot": "2",
            "type": "t_uint256"
          },
          {
            "astId": 764,
            "contract": "contracts/GuildAuctionQueue.sol:GuildAuctionQueue",
            "label": "status",
            "offset": 0,
            "slot": "3",
            "type": "t_enum(BidStatus)755"
          }
        ],
        "numberOfBytes": "128"
      },
      "t_uint256": {
        "encoding": "inplace",
        "label": "uint256",
        "numberOfBytes": "32"
      }
    }
  }
}