{
  "address": "0xC5c3c24353cB3A0bC383E8D22EEcb77C29B08eBc",
  "abi": [
    {
      "anonymous": false,
      "inputs": [
        {
          "indexed": false,
          "internalType": "address",
          "name": "acceptedBy",
          "type": "address"
        },
        {
          "indexed": false,
          "internalType": "uint256",
          "name": "id",
          "type": "uint256"
        }
      ],
      "name": "BidAccepted",
      "type": "event"
    },
    {
      "anonymous": false,
      "inputs": [
        {
          "indexed": false,
          "internalType": "uint256",
          "name": "id",
          "type": "uint256"
        }
      ],
      "name": "BidCanceled",
      "type": "event"
    },
    {
      "anonymous": false,
      "inputs": [
        {
          "indexed": false,
          "internalType": "uint256",
          "name": "newAmount",
          "type": "uint256"
        },
        {
          "indexed": false,
          "internalType": "uint256",
          "name": "id",
          "type": "uint256"
        }
      ],
      "name": "BidIncreased",
      "type": "event"
    },
    {
      "anonymous": false,
      "inputs": [
        {
          "indexed": false,
          "internalType": "uint256",
          "name": "newAmount",
          "type": "uint256"
        },
        {
          "indexed": false,
          "internalType": "uint256",
          "name": "id",
          "type": "uint256"
        }
      ],
      "name": "BidWithdrawn",
      "type": "event"
    },
    {
      "anonymous": false,
      "inputs": [
        {
          "indexed": false,
          "internalType": "uint256",
          "name": "newMinBid",
          "type": "uint256"
        }
      ],
      "name": "MinBidChanged",
      "type": "event"
    },
    {
      "anonymous": false,
      "inputs": [
        {
          "indexed": false,
          "internalType": "uint256",
          "name": "amount",
          "type": "uint256"
        },
        {
          "indexed": false,
          "internalType": "address",
          "name": "submitter",
          "type": "address"
        },
        {
          "indexed": false,
          "internalType": "uint256",
          "name": "id",
          "type": "uint256"
        },
        {
          "indexed": false,
          "internalType": "bytes32",
          "name": "details",
          "type": "bytes32"
        }
      ],
      "name": "NewBid",
      "type": "event"
    },
    {
      "inputs": [
        {
          "internalType": "uint256",
          "name": "_id",
          "type": "uint256"
        }
      ],
      "name": "acceptBid",
      "outputs": [],
      "stateMutability": "nonpayable",
      "type": "function"
    },
    {
      "inputs": [
        {
          "internalType": "uint256",
          "name": "",
          "type": "uint256"
        }
      ],
      "name": "bids",
      "outputs": [
        {
          "internalType": "uint256",
          "name": "amount",
          "type": "uint256"
        },
        {
          "internalType": "address",
          "name": "submitter",
          "type": "address"
        },
        {
          "internalType": "uint256",
          "name": "createdAt",
          "type": "uint256"
        },
        {
          "internalType": "enum GuildAuctionQueue.BidStatus",
          "name": "status",
          "type": "uint8"
        }
      ],
      "stateMutability": "view",
      "type": "function"
    },
    {
      "inputs": [
        {
          "internalType": "uint256",
          "name": "_id",
          "type": "uint256"
        }
      ],
      "name": "cancelBid",
      "outputs": [],
      "stateMutability": "nonpayable",
      "type": "function"
    },
    {
      "inputs": [
        {
          "internalType": "uint256",
          "name": "_newMin",
          "type": "uint256"
        }
      ],
      "name": "changeMinBid",
      "outputs": [],
      "stateMutability": "nonpayable",
      "type": "function"
    },
    {
      "inputs": [],
      "name": "destination",
      "outputs": [
        {
          "internalType": "address",
          "name": "",
          "type": "address"
        }
      ],
      "stateMutability": "view",
      "type": "function"
    },
    {
      "inputs": [
        {
          "internalType": "uint256",
          "name": "_amount",
          "type": "uint256"
        },
        {
          "internalType": "uint256",
          "name": "_id",
          "type": "uint256"
        }
      ],
      "name": "increaseBid",
      "outputs": [],
      "stateMutability": "nonpayable",
      "type": "function"
    },
    {
      "inputs": [
        {
          "internalType": "address",
          "name": "_owner",
          "type": "address"
        },
        {
          "internalType": "address",
          "name": "_token",
          "type": "address"
        },
        {
          "internalType": "address",
          "name": "_destination",
          "type": "address"
        },
        {
          "internalType": "uint256",
          "name": "_lockupPeriod",
          "type": "uint256"
        },
        {
          "internalType": "uint256",
          "name": "_minBid",
          "type": "uint256"
        },
        {
          "internalType": "uint256",
          "name": "_minShares",
          "type": "uint256"
        }
      ],
      "name": "init",
      "outputs": [],
      "stateMutability": "nonpayable",
      "type": "function"
    },
    {
      "inputs": [
        {
          "internalType": "address",
          "name": "user",
          "type": "address"
        }
      ],
      "name": "isMember",
      "outputs": [
        {
          "internalType": "bool",
          "name": "",
          "type": "bool"
        }
      ],
      "stateMutability": "view",
      "type": "function"
    },
    {
      "inputs": [],
      "name": "lockupPeriod",
      "outputs": [
        {
          "internalType": "uint256",
          "name": "",
          "type": "uint256"
        }
      ],
      "stateMutability": "view",
      "type": "function"
    },
    {
      "inputs": [],
      "name": "membersCanAccept",
      "outputs": [
        {
          "internalType": "uint256",
          "name": "",
          "type": "uint256"
        }
      ],
      "stateMutability": "view",
      "type": "function"
    },
    {
      "inputs": [],
      "name": "minBid",
      "outputs": [
        {
          "internalType": "uint256",
          "name": "",
          "type": "uint256"
        }
      ],
      "stateMutability": "view",
      "type": "function"
    },
    {
      "inputs": [],
      "name": "minShares",
      "outputs": [
        {
          "internalType": "uint256",
          "name": "",
          "type": "uint256"
        }
      ],
      "stateMutability": "view",
      "type": "function"
    },
    {
      "inputs": [],
      "name": "newBidId",
      "outputs": [
        {
          "internalType": "uint256",
          "name": "",
          "type": "uint256"
        }
      ],
      "stateMutability": "view",
      "type": "function"
    },
    {
      "inputs": [],
      "name": "owner",
      "outputs": [
        {
          "internalType": "address",
          "name": "",
          "type": "address"
        }
      ],
      "stateMutability": "view",
      "type": "function"
    },
    {
      "inputs": [
        {
          "internalType": "uint256",
          "name": "_amount",
          "type": "uint256"
        },
        {
          "internalType": "bytes32",
          "name": "_details",
          "type": "bytes32"
        }
      ],
      "name": "submitBid",
      "outputs": [
        {
          "internalType": "uint256",
          "name": "",
          "type": "uint256"
        }
      ],
      "stateMutability": "nonpayable",
      "type": "function"
    },
    {
      "inputs": [],
      "name": "token",
      "outputs": [
        {
          "internalType": "contract IERC20",
          "name": "",
          "type": "address"
        }
      ],
      "stateMutability": "view",
      "type": "function"
    },
    {
      "inputs": [
        {
          "internalType": "uint256",
          "name": "_amount",
          "type": "uint256"
        },
        {
          "internalType": "uint32",
          "name": "_id",
          "type": "uint32"
        }
      ],
      "name": "withdrawBid",
      "outputs": [],
      "stateMutability": "nonpayable",
      "type": "function"
    }
  ],
  "transactionHash": "0xac60fd63cdbd7e0f818b859ec96cf4b37c5360da3b094da713b05c6fc3413bf6",
  "args": [],
  "solcInputHash": "d75b249a10fcf8875bffdf4616980fa9",
  "bytecode": "0x608060405234801561001057600080fd5b506001600055611548806100256000396000f3fe608060405234801561001057600080fd5b506004361061010b5760003560e01c80637ef7e2e6116100a2578063b269681d11610071578063b269681d146101ff578063ce37387014610207578063ee947a7c1461021a578063f344be4614610222578063fc0c546a146102355761010b565b80637ef7e2e6146101af5780638da5cb5b146101b75780639703ef35146101cc578063a230c524146101df5761010b565b80633c3b1795116100de5780633c3b1795146101695780633e109a19146101715780634423c5f1146101795780637374e2f41461019c5761010b565b806319fcfab1146101105780631dd92a66146101395780632a993e621461014e5780632b1fd58a14610156575b600080fd5b61012361011e3660046110b2565b61023d565b6040516101309190611401565b60405180910390f35b61014c6101473660046110b2565b6103db565b005b610123610597565b61014c61016436600461109a565b61059d565b610123610782565b610123610788565b61018c61018736600461109a565b61078e565b604051610130949392919061142e565b61014c6101aa36600461109a565b6107c2565b610123610859565b6101bf61085f565b604051610130919061110a565b61014c6101da36600461109a565b61086e565b6101f26101ed366004610f83565b610a39565b604051610130919061115b565b6101bf610bd7565b61014c610215366004610fc2565b610be6565b610123610d18565b61014c6102303660046110d3565b610d1e565b6101bf610f5e565b60006002600054141561026b5760405162461bcd60e51b8152600401610262906113aa565b60405180910390fd5b60026000556005548310156102925760405162461bcd60e51b81526004016102629061118b565b821561033f576001546040516323b872dd60e01b8152620100009091046001600160a01b0316906323b872dd906102d19033903090889060040161111e565b602060405180830381600087803b1580156102eb57600080fd5b505af11580156102ff573d6000803e3d6000fd5b505050506040513d601f19601f820116820180604052508101906103239190611080565b61033f5760405162461bcd60e51b815260040161026290611205565b6008805460009081526009602052604081208581556001810180546001600160a01b0319163317905560038101805460ff1916905542600282015582549092909182919061038c836114c9565b91905055507fe6dcca7407be6b00aeaa48976c2ae152e8d7cc8a16074825c3546be778eda6fa853383876040516103c6949392919061140a565b60405180910390a16001600055949350505050565b600260005414156103fe5760405162461bcd60e51b8152600401610262906113aa565b6002600055816104205760405162461bcd60e51b815260040161026290611305565b60085481106104415760405162461bcd60e51b815260040161026290611166565b600081815260096020526040812090600382015460ff16600281111561047757634e487b7160e01b600052602160045260246000fd5b146104945760405162461bcd60e51b8152600401610262906111df565b6001546040516323b872dd60e01b8152620100009091046001600160a01b0316906323b872dd906104cd9033903090889060040161111e565b602060405180830381600087803b1580156104e757600080fd5b505af11580156104fb573d6000803e3d6000fd5b505050506040513d601f19601f8201168201806040525081019061051f9190611080565b61053b5760405162461bcd60e51b815260040161026290611205565b8281600001600082825461054f919061149a565b909155505080546040517eaf2e2a3e39505661009eb9f5ad582e286bfa100a4a613d3889d6454689423491610585918590611478565b60405180910390a15050600160005550565b60065481565b600654600114156105d2576105b133610a39565b6105cd5760405162461bcd60e51b815260040161026290611353565b6105fc565b6002546001600160a01b031633146105fc5760405162461bcd60e51b8152600401610262906113e1565b6002600054141561061f5760405162461bcd60e51b8152600401610262906113aa565b600260005560085481106106455760405162461bcd60e51b815260040161026290611166565b600081815260096020526040812090600382015460ff16600281111561067b57634e487b7160e01b600052602160045260246000fd5b146106985760405162461bcd60e51b8152600401610262906111df565b60038181018054600160ff199091168117909155549054825460405163a9059cbb60e01b81526001600160a01b036201000090940484169363a9059cbb936106e593911691600401611142565b602060405180830381600087803b1580156106ff57600080fd5b505af1158015610713573d6000803e3d6000fd5b505050506040513d601f19601f820116820180604052508101906107379190611080565b61074057600080fd5b7f68113ca7b748f7d17637d79856900bc9336b88166e726bc9b55c62a39408b4073383604051610771929190611142565b60405180910390a150506001600055565b60075481565b60055481565b600960205260009081526040902080546001820154600283015460039093015491926001600160a01b039091169160ff1684565b600260005414156107e55760405162461bcd60e51b8152600401610262906113aa565b60026000819055546001600160a01b031633146108145760405162461bcd60e51b8152600401610262906113e1565b60058190556040517f06067d96ac58a88c16adbf5915a25affb1d79f1ed574cdf2e02eaf9335fc4aaa90610849908390611401565b60405180910390a1506001600055565b60085481565b6002546001600160a01b031681565b600260005414156108915760405162461bcd60e51b8152600401610262906113aa565b600260005560085481106108b75760405162461bcd60e51b815260040161026290611166565b600081815260096020526040812090600382015460ff1660028111156108ed57634e487b7160e01b600052602160045260246000fd5b1461090a5760405162461bcd60e51b8152600401610262906111df565b60018101546001600160a01b031633146109365760405162461bcd60e51b81526004016102629061132f565b426004548260020154610949919061149a565b106109665760405162461bcd60e51b8152600401610262906111b0565b600381018054600260ff19909116179055600154815460405163a9059cbb60e01b8152620100009092046001600160a01b03169163a9059cbb916109af91339190600401611142565b602060405180830381600087803b1580156109c957600080fd5b505af11580156109dd573d6000803e3d6000fd5b505050506040513d601f19601f82011682018060405250810190610a019190611080565b610a0a57600080fd5b7ff72c9cb76aa633bc9310fa98738d474339fdf2f23dfac70ccbd65e593f6654df826040516107719190611401565b6002546040805163623d9ac960e01b815290516000926001600160a01b0316918391839163623d9ac9916004808301926020929190829003018186803b158015610a8257600080fd5b505afa158015610a96573d6000803e3d6000fd5b505050506040513d601f19601f82011682018060405250810190610aba9190610fa6565b60405163100b05e560e21b815290915081906000906001600160a01b0383169063402c179490610aee90899060040161110a565b60206040518083038186803b158015610b0657600080fd5b505afa158015610b1a573d6000803e3d6000fd5b505050506040513d601f19601f82011682018060405250810190610b3e9190610fa6565b90506000826001600160a01b03166308ae4b0c836040518263ffffffff1660e01b8152600401610b6e919061110a565b60c06040518083038186803b158015610b8657600080fd5b505afa158015610b9a573d6000803e3d6000fd5b505050506040513d601f19601f82011682018060405250810190610bbe9190611026565b505060075490921015985050505050505050505b919050565b6003546001600160a01b031681565b600154610100900460ff1680610bff575060015460ff16155b610c1b5760405162461bcd60e51b815260040161026290611263565b600154610100900460ff16158015610c45576001805460ff1961ff00199091166101001716811790555b6001600160a01b038616610c6b5760405162461bcd60e51b8152600401610262906112de565b6001600160a01b038516610c915760405162461bcd60e51b8152600401610262906112b1565b8115610ca257600782905560016006555b600180546001600160a01b03808916620100000262010000600160b01b031990921691909117909155600380548783166001600160a01b0319918216179091556004869055600585905560028054928a16929091169190911790558015610d0f576001805461ff00191690555b50505050505050565b60045481565b60026000541415610d415760405162461bcd60e51b8152600401610262906113aa565b600260005581610d635760405162461bcd60e51b815260040161026290611380565b6008548163ffffffff1610610d8a5760405162461bcd60e51b815260040161026290611166565b63ffffffff8116600090815260096020526040812090600382015460ff166002811115610dc757634e487b7160e01b600052602160045260246000fd5b14610de45760405162461bcd60e51b8152600401610262906111df565b60018101546001600160a01b03163314610e105760405162461bcd60e51b81526004016102629061132f565b6005548154610e209085906114b2565b1015610e3e5760405162461bcd60e51b815260040161026290611234565b426004548260020154610e51919061149a565b10610e6e5760405162461bcd60e51b8152600401610262906111b0565b82816000016000828254610e8291906114b2565b909155505060015460405163a9059cbb60e01b8152620100009091046001600160a01b03169063a9059cbb90610ebe9033908790600401611142565b602060405180830381600087803b158015610ed857600080fd5b505af1158015610eec573d6000803e3d6000fd5b505050506040513d601f19601f82011682018060405250810190610f109190611080565b610f2c5760405162461bcd60e51b815260040161026290611205565b80546040517f6415d97b7a9df23899954c482911f3fc2cb8afff4b6b15e788859e1307de227a91610585918590611486565b6001546201000090046001600160a01b031681565b80518015158114610bd257600080fd5b600060208284031215610f94578081fd5b8135610f9f816114fa565b9392505050565b600060208284031215610fb7578081fd5b8151610f9f816114fa565b60008060008060008060c08789031215610fda578182fd5b8635610fe5816114fa565b95506020870135610ff5816114fa565b94506040870135611005816114fa565b959894975094956060810135955060808101359460a0909101359350915050565b60008060008060008060c0878903121561103e578182fd5b8651611049816114fa565b602088015160408901519197509550935061106660608801610f73565b92506080870151915060a087015190509295509295509295565b600060208284031215611091578081fd5b610f9f82610f73565b6000602082840312156110ab578081fd5b5035919050565b600080604083850312156110c4578182fd5b50508035926020909101359150565b600080604083850312156110e5578182fd5b82359150602083013563ffffffff811681146110ff578182fd5b809150509250929050565b6001600160a01b0391909116815260200190565b6001600160a01b039384168152919092166020820152604081019190915260600190565b6001600160a01b03929092168252602082015260400190565b901515815260200190565b6020808252600b908201526a1a5b9d985b1a5908189a5960aa1b604082015260600190565b6020808252600b908201526a62696420746f6f206c6f7760a81b604082015260600190565b6020808252601590820152743637b1b5bab82832b934b7b2103737ba1037bb32b960591b604082015260600190565b6020808252600c908201526b62696420696e61637469766560a01b604082015260600190565b6020808252601590820152741d1bdad95b881d1c985b9cd9995c8819985a5b1959605a1b604082015260600190565b60208082526015908201527472656d61696e696e672062696420746f6f206c6f7760581b604082015260600190565b6020808252602e908201527f496e697469616c697a61626c653a20636f6e747261637420697320616c72656160408201526d191e481a5b9a5d1a585b1a5e995960921b606082015260800190565b60208082526013908201527234b73b30b634b2103232b9ba34b730ba34b7b760691b604082015260600190565b6020808252600d908201526c34b73b30b634b2103a37b5b2b760991b604082015260600190565b60208082526010908201526f063616e277420696e63726561736520360841b604082015260600190565b6020808252600a908201526910b9bab136b4ba3a32b960b11b604082015260600190565b60208082526013908201527210b33ab6361036b7b637b1b41036b2b6b132b960691b604082015260600190565b60208082526010908201526f063616e277420776974686472617720360841b604082015260600190565b6020808252601f908201527f5265656e7472616e637947756172643a207265656e7472616e742063616c6c00604082015260600190565b60208082526006908201526510b7bbb732b960d11b604082015260600190565b90815260200190565b9384526001600160a01b039290921660208401526040830152606082015260800190565b8481526001600160a01b038416602082015260408101839052608081016003831061146957634e487b7160e01b600052602160045260246000fd5b82606083015295945050505050565b918252602082015260400190565b91825263ffffffff16602082015260400190565b600082198211156114ad576114ad6114e4565b500190565b6000828210156114c4576114c46114e4565b500390565b60006000198214156114dd576114dd6114e4565b5060010190565b634e487b7160e01b600052601160045260246000fd5b6001600160a01b038116811461150f57600080fd5b5056fea26469706673582212201134fbb406d9f26cf09ab8842fc591edc50c66e8378007a0840812e0c375bc2264736f6c63430008000033",
  "devdoc": {
    "kind": "dev",
    "methods": {},
    "version": 1
  },
  "userdoc": {
    "kind": "user",
    "methods": {},
    "version": 1
  },
  "storageLayout": {
    "storage": [
      {
        "astId": 56,
        "contract": "contracts/GuildAuctionQueue.sol:GuildAuctionQueue",
        "label": "_status",
        "offset": 0,
        "slot": "0",
        "type": "t_uint256"
      },
      {
        "astId": 5,
        "contract": "contracts/GuildAuctionQueue.sol:GuildAuctionQueue",
        "label": "_initialized",
        "offset": 0,
        "slot": "1",
        "type": "t_bool"
      },
      {
        "astId": 8,
        "contract": "contracts/GuildAuctionQueue.sol:GuildAuctionQueue",
        "label": "_initializing",
        "offset": 1,
        "slot": "1",
        "type": "t_bool"
      },
      {
        "astId": 732,
        "contract": "contracts/GuildAuctionQueue.sol:GuildAuctionQueue",
        "label": "token",
        "offset": 2,
        "slot": "1",
        "type": "t_contract(IERC20)670"
      },
      {
        "astId": 734,
        "contract": "contracts/GuildAuctionQueue.sol:GuildAuctionQueue",
        "label": "owner",
        "offset": 0,
        "slot": "2",
        "type": "t_address"
      },
      {
        "astId": 736,
        "contract": "contracts/GuildAuctionQueue.sol:GuildAuctionQueue",
        "label": "destination",
        "offset": 0,
        "slot": "3",
        "type": "t_address"
      },
      {
        "astId": 738,
        "contract": "contracts/GuildAuctionQueue.sol:GuildAuctionQueue",
        "label": "lockupPeriod",
        "offset": 0,
        "slot": "4",
        "type": "t_uint256"
      },
      {
        "astId": 740,
        "contract": "contracts/GuildAuctionQueue.sol:GuildAuctionQueue",
        "label": "minBid",
        "offset": 0,
        "slot": "5",
        "type": "t_uint256"
      },
      {
        "astId": 742,
        "contract": "contracts/GuildAuctionQueue.sol:GuildAuctionQueue",
        "label": "membersCanAccept",
        "offset": 0,
        "slot": "6",
        "type": "t_uint256"
      },
      {
        "astId": 744,
        "contract": "contracts/GuildAuctionQueue.sol:GuildAuctionQueue",
        "label": "minShares",
        "offset": 0,
        "slot": "7",
        "type": "t_uint256"
      },
      {
        "astId": 746,
        "contract": "contracts/GuildAuctionQueue.sol:GuildAuctionQueue",
        "label": "newBidId",
        "offset": 0,
        "slot": "8",
        "type": "t_uint256"
      },
      {
        "astId": 751,
        "contract": "contracts/GuildAuctionQueue.sol:GuildAuctionQueue",
        "label": "bids",
        "offset": 0,
        "slot": "9",
        "type": "t_mapping(t_uint256,t_struct(Bid)765_storage)"
      }
    ],
    "types": {
      "t_address": {
        "encoding": "inplace",
        "label": "address",
        "numberOfBytes": "20"
      },
      "t_bool": {
        "encoding": "inplace",
        "label": "bool",
        "numberOfBytes": "1"
      },
      "t_contract(IERC20)670": {
        "encoding": "inplace",
        "label": "contract IERC20",
        "numberOfBytes": "20"
      },
      "t_enum(BidStatus)755": {
        "encoding": "inplace",
        "label": "enum GuildAuctionQueue.BidStatus",
        "numberOfBytes": "1"
      },
      "t_mapping(t_uint256,t_struct(Bid)765_storage)": {
        "encoding": "mapping",
        "key": "t_uint256",
        "label": "mapping(uint256 => struct GuildAuctionQueue.Bid)",
        "numberOfBytes": "32",
        "value": "t_struct(Bid)765_storage"
      },
      "t_struct(Bid)765_storage": {
        "encoding": "inplace",
        "label": "struct GuildAuctionQueue.Bid",
        "members": [
          {
            "astId": 757,
            "contract": "contracts/GuildAuctionQueue.sol:GuildAuctionQueue",
            "label": "amount",
            "offset": 0,
            "slot": "0",
            "type": "t_uint256"
          },
          {
            "astId": 759,
            "contract": "contracts/GuildAuctionQueue.sol:GuildAuctionQueue",
            "label": "submitter",
            "offset": 0,
            "slot": "1",
            "type": "t_address"
          },
          {
            "astId": 761,
            "contract": "contracts/GuildAuctionQueue.sol:GuildAuctionQueue",
            "label": "createdAt",
            "offset": 0,
            "slot": "2",
            "type": "t_uint256"
          },
          {
            "astId": 764,
            "contract": "contracts/GuildAuctionQueue.sol:GuildAuctionQueue",
            "label": "status",
            "offset": 0,
            "slot": "3",
            "type": "t_enum(BidStatus)755"
          }
        ],
        "numberOfBytes": "128"
      },
      "t_uint256": {
        "encoding": "inplace",
        "label": "uint256",
        "numberOfBytes": "32"
      }
    }
  }
}